S016000045464D3332474739393046313032342E73333764
S113000000000220AD010000D9010000D901000068
S1130010D9010000D9010000D9010000D901000074
S1130020D9010000D9010000D9010000D901000064
S1130030D9010000D9010000D9010000D901000054
S11300406D030000A902000039030000D90100007B
S1130050D9010000D9010000D9010000D901000034
S1130060D9010000D9010000D9010000D10200002B
S1130070D9010000D9010000D9010000D901000014
S1130080D9010000D9010000D9010000D901000004
S1130090D9010000D9010000D9010000D9010000F4
S11300A0D9010000D9010000D9010000D9010000E4
S11300B0D9010000D9010000D9010000D9010000D4
S11300C0D9010000D9010000D9010000D9010000C4
S11300D0D9010000D9010000D901000010B5054C78
S11300E0237833B9044B13B10448AFF300800123E0
S11300F0237010BD6C000020000000000806000002
S1130100084B10B51BB108480849AFF300800848F4
S1130110036803B910BD074B002BFBD0BDE81040AA
S1130120184700BF0000000008060000700000200F
S11301306800002000000000154B002B08BF134B83
S11301409D46A3F5803A00218B460F461348144A76
S1130150121A00F011FA0F4B002B00D098470E4BE7
S1130160002B00D098470020002104000D000D480A
S1130170002802D00C48AFF3008000F0D7F920002B
S1130180290000F0B9F900F0BDF900BF0000080033
S11301900000022000000000000000006C000020AD
S11301A0CC0000200000000000000000064880474A
S11301B00649074A074B9A42BEBF51F8040B42F85E
S11301C0040BF8E7FFF7B8FFDD0100001406000098
S11301D0000000206C000020FEE700BF80B400AFE8
S11301E0BD465DF8047B704780B483B000AF78608F
S11301F0044A7B68C2F81C310C37BD465DF8047BA9
S1130200704700BF0060004080B483B000AF074B6C
S1130210D3F810317B60054BD3F814217B6813406D
S113022018460C37BD465DF8047B704700600040FB
S113023080B485B000AF78607B68FB60FB6893FA9C
S1130240A3F3BB60BB68B3FA83F318461437BD4607
S11302505DF8047B704700BF80B584B000AF786060
S113026019E07868FFF7E4FFF860FB68012202FAFE
S113027003F3DB431A467B6813407B60094AFB683F
S113028052F82330BB60BB68002B04D0FB68DAB2A1
S1130290BB68104698477B68002BE2D11037BD46F7
S11302A080BD00BF8800002080B582B000AFFFF79A
S11302B0ABFF024645F2555313407B607868FFF765
S11302C093FF7868FFF7C8FF0837BD4680BD00BFBD
S11302D080B582B000AFFFF797FF02464AF6AA2323
S11302E013407B607868FFF77FFF7868FFF7B4FFFF
S11302F00837BD4680BD00BF80B483B000AF7860CE
S1130300FEE700BF80B483B000AF786039607B68DB
S11303103A689A610C37BD465DF8047B704700BFAC
S113032080B483B000AF78607B681B6918460C37D3
S1130330BD465DF8047B704780B582B000AF0948C4
S1130340FFF7EEFF78607B6803F01003002B06D004
S113035004481021FFF7D6FF034B01221A70083717
S1130360BD4680BD00000140C800002080B58AB0B1
S113037000AF334B03F580531B68BB61304B03F56F
S113038080530C331B68BA691340BB612C4B9B6BC5
S11303907B61BA697B6913403B620023FB6149E0DE
S11303A000237B623BE03B6A03F00103002B30D067
S11303B0234B9B683B6101227B6A02FA03F3FB60D7
S11303C01F4B03F580530833FA681A607B6A1B01DC
S11303D03A691344DB68BB60BB68002B19D0BB6867
S11303E01B7A7B60BB681B7A83F00103DAB2BB68BB
S11303F01A72BB681B68002B0BD0BB681B68786A39
S11304007A68002A14BF01220022D1B2BA68526865
S113041098473B6A5B083B627B6A01337B623B6AB9
S1130420002BC0D17B69DA43BB6913403B62FB6993
S11304300133FB61FB69012BB2DD2837BD4680BD6A
S113044000200C4080B485B000AF7860194B5B6924
S1130450DBB203F00F03DBB29B00FB73154B1B698C
S113046003F0C0039B09DAB2FB7B1343FB737B6885
S1130470FA7B9A700F4B1B69DBB203F03F03DAB2CD
S11304807B685A700B4B9B69DBB223F00F03FB7341
S1130490084BDB6903F0F0031B09DAB2FB7B13435F
S11304A0FB737B68FA7B1A701437BD465DF8047BD6
S11304B0704700BFD0FF0FE080B582B000AF0C4B97
S11304C01B687B603B461846FFF7BCFF7B681B0E2E
S11304D00F2B0AD93B78032B07D1064A054B1B681F
S11304E023F0500343F0100313600837BD4680BD6A
S11304F0FC81E00FC0800C4080B500AFFFF7DCFF4B
S1130500FEE700BF08B5074B044613B10021AFF363
S11305100080054B1868836A03B198472046FFF7AB
S1130520EBFE00BF00000000040600000E4B70B597
S11305301E460E4C0025E41AA410A54204D056F819
S1130540253098470135F8E700F01EF8084B094CB0
S11305501E46E41AA4100025A54204D056F82530FE
S113056098470135F8E770BD600000206000002066
S1130570600000206400002003460244934202D03D
S113058003F8011BFAE77047F8B500BFF8BC08BCD4
S11305909E467047F8B500BFF8BC08BC9E4670473D
S11305A00000000000000000000000000000000047
S11305B00000000000000000000000000000000037
S11305C00000000000000000000000000000000027
S11305D00000000000000000000000000000000017
S11305E00000000000000000000000000000000007
S11305F000000000000000000000000000000000F7
S10F060043000000000000200000000087
S10B060C2CFBFF7F010000003C
S113061400000000A0050000C0050000E005000083
S113062400000000000000000000000000000000C2
S113063400060000000000000000000000000000AC
S113064400000000000000000000000000000000A2
S11306540000000000000000000000000000000092
S11306640000000000000000000000000000000082
S10F067401010000DD0000000000000097
S90301AD4E
