:1000000000000220AD010000D9010000D90100006C
:10001000D9010000D9010000D9010000D901000078
:10002000D9010000D9010000D9010000D901000068
:10003000D9010000D9010000D9010000D901000058
:10004000CD290000410B0000D9010000D9010000BA
:10005000D9010000D9010000D9010000D901000038
:10006000D9010000D9010000D9010000690B00008E
:10007000D9010000D9010000D9010000D901000018
:10008000D9010000D9010000D9010000D901000008
:10009000D9010000D9010000D9010000D9010000F8
:1000A000D9010000D9010000D9010000D9010000E8
:1000B000D9010000D9010000D9010000D9010000D8
:1000C000D9010000D9010000D9010000D9010000C8
:1000D000D9010000D9010000D901000010B5054C7C
:1000E000237833B9044B13B10448AFF300800123E4
:1000F000237010BD0002002000000000E436000064
:10010000084B10B51BB108480849AFF300800848F8
:10011000036803B910BD074B002BFBD0BDE81040AE
:10012000184700BF00000000E43600000402002071
:100130007801002000000000154B002B08BF134B76
:100140009D46A3F5803A00218B460F461348144A7A
:10015000121A03F07CFA0F4B002B00D098470E4B7D
:10016000002B00D098470020002104000D000D480E
:10017000002802D00C48AFF3008003F037FA2000CB
:10018000290003F007FA03F01DFA00BF0000080081
:10019000000002200000000000000000000200201B
:1001A00074060020000000000000000006488047A0
:1001B0000649074A074B9A42BEBF51F8040B42F862
:1001C000040BF8E7FFF7B8FF2D030000F03600003E
:1001D000000000207C010020FEE700BF80B400AFDB
:1001E000044BDB6C1B0EDBB21846BD465DF8047B8E
:1001F000704700BFB081E00F80B582B000AF00F063
:1002000015F87860074B5B6803F00F031A467B68AC
:10021000D3407B60044A7B6813607B6818460837CC
:10022000BD4680BD00800C40F403002080B582B044
:1002300000AF334BDB6A03F47053B3F5805F0AD031
:10024000B3F5005F03D0B3F5006F08D00BE02D4B82
:100250001B687B6047E04FF400437B6043E02A4B20
:100260001B687B603FE0264BDB6803F4E063B3F57B
:10027000007F1BD0B3F5007F05D8002B24D0B3F549
:10028000807F16D02BE0B3F5806F09D0B3F5A06F57
:1002900003D0B3F5407F06D021E01C4B7B6021E00A
:1002A0001B4B7B601EE01B4B7B601BE01A4B7B6093
:1002B00018E0FFF793FF0346122B02D9174B7B6020
:1002C00010E0174B7B600DE0FFF788FF0346122B11
:1002D00002D9144B7B6005E0134B7B6002E00023E6
:1002E0007B6000BF00BF064B1B6803F4E0339B0B31
:1002F00001337A68B2FBF3F318460837BD4680BD78
:1003000000800C400400002000000020003FAB01F2
:10031000406F4001809FD500C0D8A70040B5640061
:10032000C0CF6A00804F120040420F0080B400AF7F
:10033000BD465DF8047B704780B400AF4FF40043C6
:100340001846BD465DF8047B704700BF80B400AF1F
:100350004FF47A731846BD465DF8047B704700BFC2
:1003600080B400AF034B1B681846BD465DF8047BA4
:10037000704700BF0400002080B483B000AF034684
:100380003960FB7197F90730002B0BDA0D49FB79C7
:1003900003F00F03043B3A68D2B25201D2B20B44CD
:1003A0001A7609E0084997F907303A68D2B2520143
:1003B000D2B20B4483F800230C37BD465DF8047BB2
:1003C000704700BF00ED00E000E100E080B584B0C0
:1003D00000AF78603960254B1B7883F00103DBB2F6
:1003E000002B01D0224B3DE07B68002B01D1214B3B
:1003F00038E002F0E1F9B8600023FB602BE01E4911
:10040000FA6813469B0013449B000B4410331B787F
:1004100083F00103DBB2002B1AD0FA687B681A6004
:100420001549FA6813469B0013449B000B44103394
:1004300001221A701049FA6813469B0013449B006E
:100440000B4400221A60B86802F0C6F9002309E0E4
:10045000FB680133FB60FB680B2BD0DDB86802F052
:10046000BBF9064B18461037BD4680BD1C02002064
:10047000028000F0018000F020020020048000F0E3
:1004800080B584B000AF02F097F9B860194B1B78C3
:10049000002B04D0B86802F09FF9174B25E0154BEC
:1004A00001221A70B86802F097F90023FB600CE093
:1004B0001249FA6813469B0013449B000B44103307
:1004C00000221A70FB680133FB60FB680B2BEFDD29
:1004D00000200421FFF750FF00233B70084B7B6096
:1004E0003B46184602F0E2FB002318461037BD4693
:1004F00080BD00BF1C020020038000F0200200200D
:100500000004002080B58CB008AFF860B9607A6054
:100510003B607B6800933B680193002302933B7E22
:100520000393FB69049397F8203005937B6A069345
:10053000BB6A079300200021FA68BB6800F020F92D
:10054000034618461037BD4680BD00BF80B582B057
:1005500000AF7860134B1B7883F00103DBB2002BF4
:1005600001D0114B19E07B680B2B01D90F4B14E024
:100570000F497A6813469B0013449B000B441033C9
:100580001B7883F00103DBB2002B01D0094B04E0A0
:100590007868002102F06EFB002318460837BD463C
:1005A00080BD00BF1C020020028000F0018000F02E
:1005B00020020020078000F080B582B000AF786094
:1005C000134B1B7883F00103DBB2002B01D0114BDE
:1005D00019E07B680B2B01D90F4B14E00F497A68A7
:1005E00013469B0013449B000B4410331B7883F08D
:1005F0000103DBB2002B01D0094B04E07868012134
:1006000002F038FB002318460837BD4680BD00BF06
:100610001C020020028000F0018000F02002002077
:10062000078000F080B582B000AF78603960194B68
:100630001B7883F00103DBB2002B01D0164B25E0C1
:100640007B680B2B02D83B68002B01D1134B1DE0BC
:1006500013497A6813469B0013449B000B441033E4
:100660001B7883F00103DBB2002B01D00D4B0DE0B2
:10067000786802F0E7FA0346002B03D03B680122BA
:100680001A7002E03B6800221A70002318460837EF
:10069000BD4680BD1C020020028000F0018000F0F9
:1006A00020020020078000F080B586B000AFF8601F
:1006B0000B467A60FB72FA6813469B0013449B005A
:1006C0000B4A13447B617B691B68002B0CD07B6950
:1006D0009B685A1C7B699A607B691B687A69916880
:1006E0007A695268F86898471837BD4680BD00BFE0
:1006F0002002002080B58AB004AFF8600B467A6013
:10070000FB720123FB75FA6813469B0013449B00A0
:100710001A4A13443B613B691B68002B1AD03B69A2
:100720009B685A1C3B699A603B691B683A699168EF
:100730003A695268F86898470346002B14BF0123B2
:100740000023DBB283F00103DBB2FB75FB7D03F01A
:100750000103FB753B69DB68013B1946FA7A00230C
:1007600000930191FB7D029300201146002200239B
:1007700002F0C6FA1837BD4680BD00BF2002002037
:1007800080B58EB004AFBA607B600346FB730B4646
:10079000BB73864B1B7883F00103DBB2002B01D0C7
:1007A000834BFEE0BB680B2B0FD83B6B002B0CD0B0
:1007B0007B6B002B09D03B6CB3F5806F05DCFB7BBA
:1007C000012B04D1BB6B002B01D17A4BE9E0BA6855
:1007D00013469B0013449B00774A13447B627B6A59
:1007E0001B7C83F00103DBB2002B01D0734BD8E0FC
:1007F000FB7B002B09D17249BA6813465B00134496
:100800009B000B446F4A1A6008E06D49BA681346B2
:100810005B0013449B000B446B4A1A606849BA683A
:1008200013465B0013449B000B4400225A600023D4
:100830003B76BB6C002B02D1FB7B012B02D1012349
:100840007B7601E000237B767B68FB61BA68134608
:100850005B0013449B005A4A13443B6207F11803A0
:10086000B868194602F06EF9BB7B002B19D197F8D6
:100870003C30002B10D097F84430002B02D10023DD
:100880007B740BE097F84430012B02D101237B7479
:1008900004E002237B7401E003237B7403233B7495
:1008A00018E097F83C30002B10D097F84430002B1C
:1008B00002D100233B740BE097F84430012B02D1A6
:1008C00001233B7404E002233B7401E003233B74E7
:1008D00003237B7497F84430BB740023FB7400231C
:1008E0003B7507F11003B86801211A4602F072F94E
:1008F000FB7B012B06D107F11003B86800211A46D3
:1009000002F068F97B6ABA6C1A607B6AFA6C5A600A
:100910007B6A00229A607B6A3A6CDA602B4ABB6879
:10092000012101FA03F3194602F5805308331960D7
:10093000FB7B002B0CD13B6C013B1A467B6B00937D
:100940000192B868012100223B6B02F0ABF827E06E
:10095000BB7B002B12D13B6C013B19463B6C013B2E
:100960001A4600913B6B0193BB6B02930392B868EC
:1009700000213A6B7B6B02F0B7F811E03B6C013B56
:1009800019463B6C013B1A4600917B6B0193BB6B94
:1009900002930392B86800213A6BBB6B02F0A4F893
:1009A000002318462837BD4680BD00BF1C0200202A
:1009B000028000F0018000F020020020078000F09B
:1009C00010030020A9060000F506000000200C40DE
:1009D00080B483B000AF0346FB71084997F9073034
:1009E0005B09FA7902F01F02012000FA02F241F8D5
:1009F00023200C37BD465DF8047B704700E100E022
:100A000080B483B000AF0346FB71094997F9073002
:100A10005B09FA7902F01F02012000FA02F260334A
:100A200041F823200C37BD465DF8047B704700BFBA
:100A300000E100E080B483B000AF7860044A7B68D6
:100A4000C2F81C310C37BD465DF8047B704700BF0F
:100A50000060004080B483B000AF074BD3F8103182
:100A60007B60054BD3F814217B68134018460C3784
:100A7000BD465DF8047B70470060004080B485B0DF
:100A800000AF78607B68FB60FB6893FAA3F3BB6000
:100A9000BB68B3FA83F318461437BD465DF8047B90
:100AA000704700BF80B500AF0B20FFF7A9FF0B20F8
:100AB000FFF78EFF0120FFF7A3FF0120FFF788FF5C
:100AC00080BD00BF80B584B000AF03463960FB71C4
:100AD00001F072FEF860FB7904493A6841F823207E
:100AE000F86801F079FE1037BD4680BDA0030020F4
:100AF00080B584B000AF786019E07868FFF7BEFF7A
:100B0000F860FB68012202FA03F3DB431A467B68B4
:100B100013407B60094AFB6852F82330BB60BB6816
:100B2000002B04D0FB68DAB2BB68104698477B689C
:100B3000002BE2D11037BD4680BD00BFA0030020CE
:100B400080B582B000AFFFF785FF024645F25553EE
:100B500013407B607868FFF76DFF7868FFF7C8FF88
:100B60000837BD4680BD00BF80B582B000AFFFF73B
:100B700071FF02464AF6AA2313407B607868FFF7AC
:100B800059FF7868FFF7B4FF0837BD4680BD00BF46
:100B900080B483B000AF786039607B683A689A644B
:100BA0000C37BD465DF8047B704700BF80B485B04C
:100BB00000AF786039607B6803F10473DA003B684A
:100BC00013449B00FB60FB681B6818461437BD4646
:100BD0005DF8047B704700BF80B582B000AF03466C
:100BE0003960FB71FB79002B0DD0FB79012B0AD00A
:100BF000FB79022B07D0FB79032B04D0FB79042B64
:100C000001D0FB79052BFA791346DB0013449B00D6
:100C10001C3303F1804303F5C04318463968FFF7DE
:100C2000C5FF034618460837BD4680BD80B483B073
:100C300000AF03463960FB71FB79002B0DD0FB79C7
:100C4000012B0AD0FB79022B07D0FB79032B04D0B0
:100C5000FB79042B01D0FB79052B0949FA793B6814
:100C6000012000FA03F318461346DB0013449B00EF
:100C70000B44103358600C37BD465DF8047B704759
:100C80000060004080B483B000AF03463960FB7160
:100C9000FB79002B0DD0FB79012B0AD0FB79022BBD
:100CA00007D0FB79032B04D0FB79042B01D0FB790F
:100CB000052B0949FA793B68012000FA03F318462D
:100CC0001346DB0013449B000B44103318600C37B1
:100CD000BD465DF8047B70470060004090B585B06C
:100CE00002AF396011461A460346FB710B46BB71D1
:100CF00013467B71FA79BC797B7900933B7E019333
:100D0000104639683A68234602F03CF90C37BD4674
:100D100090BD00BF80B485B000AF78600023FB6059
:100D200010E00D4AFB6852F823305B7F1A467B685F
:100D30009A4204D1084AFB6852F8233006E0FB6867
:100D40000133FB60FB68032BEBD9002318461437F3
:100D5000BD465DF8047B7047E403002080B582B097
:100D600000AF78607B6893F83130022B0AD17B6842
:100D70005A7E7B685B7F10461946FFF72DFF0346BE
:100D8000DBB200E0002318460837BD4680BD00BF37
:100D900080B586B000AF0346FB71FB791846FFF7BC
:100DA000B9FF78617B69002B3ED07B6993F83130C5
:100DB000022B39D17869FFF7D1FF03461A467B69C8
:100DC0001A757B695B7D022B2ED17B6993F82E30DF
:100DD000DBB2002B28D10023FB737B695A6807F133
:100DE0000F0310461946FFF71DFC38617B691B7D18
:100DF000002B04D07B6993F82F30002B09D07B693E
:100E0000002283F82F207B695B681846FFF7D4FB2C
:100E10000AE03B69002B07D1FB7B002B04D07B69E8
:100E20005B681846FFF792FB1837BD4680BD00BFD0
:100E300080B584B000AF78607B6893F83130022BC6
:100E40002FD17B685B7D002B08D17B689A7E7B6805
:100E50009B7F10461946FFF7E9FE4AE07B685B7D01
:100E6000012B08D17B689A7E7B689B7F10461946D0
:100E7000FFF708FF3DE07B681B7D002B08D17B68F6
:100E80009A7E7B689B7F10461946FFF7CFFE30E0C5
:100E90007B689A7E7B689B7F10461946FFF7F2FEBF
:100EA00027E07B6893F83130012B22D17B681B7DD2
:100EB000002B0FD11123FB73786800F09DFF07F121
:100EC0000F0378681946012200F00EFF786800F0E1
:100ED000D3FF0EE01323FB73786800F08DFF07F15A
:100EE0000F0378681946012200F0FEFE786800F0D2
:100EF000C3FF002318461037BD4680BD80B586B0BD
:100F000000AFF860B9607A6001F056FC7861FB6868
:100F10009B889AB2FB68DB889A4207D37B680022E1
:100F20001A60786901F058FC1D4B35E0FB681B889E
:100F30009BB21A4613469B0013449B000833FA6881
:100F400013441846B968142202F076FBFB681B882C
:100F50009BB21A4613469B0013449B000833FA6861
:100F60001A447B681A60FB681B889BB20133FA68DD
:100F7000D28893FBF2F102FB01F29B1A9AB2FB6852
:100F80001A80FB689B889BB201339AB2FB689A80F7
:100F9000786901F021FC002318461837BD4680BD52
:100FA0000A7000F080B584B000AF7860396001F05D
:100FB00003FCF8607B689B889BB2002B07D13B68E1
:100FC00000221A60F86801F007FC164B25E07B68E8
:100FD0005B889BB21A4613469B0013449B00083360
:100FE0007A681A443B681A607B685B889BB201335D
:100FF0007A68D28893FBF2F102FB01F29B1A9AB253
:101000007B685A807B689B889BB2013B9AB27B6865
:101010009A80F86801F0E0FB002318461037BD46BF
:1010200080BD00BF0B7000F080B584B000AF786069
:10103000396001F0C1FBF8607B689B889BB2002B94
:1010400007D13B6800221A60F86801F0C5FB0B4B22
:1010500010E07B685B889BB21A4613469B001344E2
:101060009B0008337A681A443B681A60F86801F0FC
:10107000B3FB002318461037BD4680BD0B7000F04F
:1010800080B483B000AF78607B6893F83230002B77
:1010900014D17B681B680422DA6000BF7B681B6880
:1010A0001B6903F00203002BF8D07B681B687A6889
:1010B0001268526D42F002025A6520E07B6893F894
:1010C0003230012B1BD100BF7B681B685B6C03F0C7
:1010D0000203002BF8D17B681B6804225A6000BF12
:1010E0007B681B689B6803F00203002BF8D07B68C9
:1010F0001B687A681268526D42F002025A650C371A
:10110000BD465DF8047B704780B483B000AF786063
:101110007B6893F83230002B0CD17B681B687A68AF
:101120001268526D22F002025A657B681B68082221
:10113000DA6018E07B6893F83230012B13D100BFDE
:101140007B681B685B6C03F00203002BF8D17B68A3
:101150001B687A681268526D22F002025A657B6839
:101160001B6808225A600C37BD465DF8047B704747
:1011700090B58BB006AF786039600023FB607B6868
:10118000012283F82D207B6893F83230002B04D1A4
:101190007B681B683433FB600EE07B6893F8323069
:1011A000012B04D17B681B682833FB6004E07B685B
:1011B000002283F82D2017E07B6859687B68DA6885
:1011C0003B681C683B685B681846012300930190EC
:1011D00000230293064B03937B6804930846114651
:1011E000FA682346FFF78EF91437BD4690BD00BF5D
:1011F000F511000090B589B000AFF860B9607A6071
:101200007B68FB61FB699A6A07F114031046194673
:10121000FFF70AFF7B6900221A617B6900229A604E
:1012200001F0CAFAB8617B69DB68002B08D07B69E2
:10123000DC687B691A687B695B68F8690021A047F4
:10124000FB699A6A07F1140310461946FFF7AAFED4
:10125000FB699B6A9B889BB2002B0DD0FB699A6A45
:1012600007F1140310461946FFF7DEFE7B69F869A3
:101270001946FFF77DFF03E0FB69002283F82D206C
:10128000B86901F0A9FA012318462437BD4690BD7C
:1012900080B485B000AFF860B9607A60FB68002B5D
:1012A00001D10A4B0CE0BB68002B06D07B68002BF9
:1012B00003D07B68B3F5806F01D9054B00E00023B4
:1012C00018461437BD465DF8047B7047027000F085
:1012D000037000F080B483B000AF786039607B6841
:1012E0001B689B4A934240F09D803B681B7A002B11
:1012F0001FD03B681B7A012B19D03B681B7A022B4D
:1013000013D03B681B7A032B0DD03B681B7A042B50
:1013100007D03B681B7A052B01D102230AE0FF238B
:1013200008E0012306E0042304E0022302E0042392
:1013300000E004237A68D3753B681B7A002B1FD02A
:101340003B681B7A012B19D03B681B7A022B13D008
:101350003B681B7A032B0DD03B681B7A042B07D00C
:101360003B681B7A052B01D102230AE0FF2308E02A
:10137000012306E0042304E0022302E0042300E04A
:1013800004237A6813763B681B7A002B1FD03B68D6
:101390001B7A012B19D03B681B7A022B13D03B68B8
:1013A0001B7A032B0DD03B681B7A042B07D03B68BC
:1013B0001B7A052B01D100230AE0FF2308E0072355
:1013C00006E00D2304E00B2302E0072300E00A23DC
:1013D0007A68D3763B681B7A002B1FD03B681B7A58
:1013E000012B19D03B681B7A022B13D03B681B7A68
:1013F000032B0DD03B681B7A042B07D03B681B7A6C
:10140000052B01D101230AE0FF2308E0082306E0B1
:101410000C2304E00A2302E0062300E00B237A6891
:10142000137787E17B681B684A4A934254D13B6833
:101430001B7A002B0DD03B681B7A012B07D03B6831
:101440001B7A022B01D1032304E0FF2302E00323D4
:1014500000E002237A68D3753B681B7A002B0DD01D
:101460003B681B7A012B07D03B681B7A022B01D10A
:10147000032304E0FF2302E0032300E002237A6851
:1014800013763B681B7A002B0DD03B681B7A012B2F
:1014900007D03B681B7A022B01D1072304E0FF230E
:1014A00002E0002300E000237A68D3763B681B7AD1
:1014B000002B0DD03B681B7A012B07D03B681B7AB1
:1014C000022B01D1062304E0FF2302E0012300E008
:1014D00001237A6813772DE17B681B681E4A9342CB
:1014E00042D13B681B7A002B07D03B681B7A012B4B
:1014F00001D1012302E0FF2300E002237A68D375C3
:101500003B681B7A002B07D03B681B7A012B01D16B
:10151000012302E0FF2300E002237A6813763B6890
:101520001B7A002B07D03B681B7A012B01D10323C8
:1015300002E0FF2300E002237A68D3763B681B7A3F
:10154000002B0DD03B681B7A012B07D1042308E048
:1015500000C0004000C4004000C80040FF2300E07D
:1015600003237A681377E5E07B681B687D4A934222
:101570006CD13B681B7A002B13D03B681B7A012B84
:101580000DD03B681B7A022B07D03B681B7A032BDC
:1015900001D1022306E0FF2304E0002302E004233C
:1015A00000E005237A68D3753B681B7A002B13D0C3
:1015B0003B681B7A012B0DD03B681B7A022B07D0AE
:1015C0003B681B7A032B01D1022306E0FF2304E0D2
:1015D000002302E0042300E005237A6813763B68C9
:1015E0001B7A002B13D03B681B7A012B0DD03B6874
:1015F0001B7A022B07D03B681B7A032B01D10E23E9
:1016000006E0FF2304E0032302E0002300E00623BA
:101610007A68D3763B681B7A002B13D03B681B7A21
:10162000012B0DD03B681B7A022B07D03B681B7A3D
:10163000032B01D10F2306E0FF2304E0042302E083
:10164000012300E007237A68137773E07B681B6847
:10165000454A93426CD13B681B7A002B13D03B6800
:101660001B7A012B0DD03B681B7A022B07D03B68FD
:101670001B7A032B01D1042306E0FF2304E001239E
:1016800002E0052300E002237A68D3753B681B7AE9
:10169000002B13D03B681B7A012B0DD03B681B7AC3
:1016A000022B07D03B681B7A032B01D1042306E0F1
:1016B000FF2304E0012302E0052300E002237A680F
:1016C00013763B681B7A002B13D03B681B7A012BE7
:1016D0000DD03B681B7A022B07D03B681B7A032B8B
:1016E00001D1022306E0FF2304E0092302E00A23DC
:1016F00000E00C237A68D3763B681B7A002B13D06A
:101700003B681B7A012B0DD03B681B7A022B07D05C
:101710003B681B7A032B01D1032306E0FF2304E07F
:101720000A2302E00B2300E00D237A68137701E01F
:101730000E4B10E03B685A7C7B685A763B689A7C7B
:101740007B685A773B68DA7C7B689A763B681A7DBF
:101750007B689A77002318460C37BD465DF8047BFA
:10176000704700BF00E0004000E40040037000F05C
:1017700080B584B002AF78600B46FB70FB78002B1D
:1017800053D07B68DA7D7B68DB7E104619460422E5
:10179000012301F05FFC7B681A7E7B681B7F10468B
:1017A00019460222012301F055FC7B6893F8313081
:1017B000022B20D17B685A7E7B685B7F10461946DE
:1017C0000122002301F046FC7B689A7E7B689B7FA8
:1017D000104619460422002301F03CFC7B685A7E27
:1017E0007B685B7F19460123009310460122012389
:1017F000FFF774FA6CE07B6893F83130032B67D104
:101800007B685A7E7B685B7F104619460122002365
:1018100001F020FC7B689A7E7B689B7F104619460E
:101820000422002301F016FC52E07B68DA7D7B681D
:10183000DB7E104619460022002301F00BFC7B687A
:101840001A7E7B681B7F104619460022002301F098
:1018500001FC7B6893F83130022B20D17B685A7EE3
:101860007B685B7F104619460022002301F0F2FBE3
:101870007B689A7E7B689B7F104619460022002376
:1018800001F0E8FB7B685A7E7B685B7F194600238A
:101890000093104601220123FFF720FA18E07B682D
:1018A00093F83130032B13D17B685A7E7B685B7FC2
:1018B000104619460022002301F0CCFB7B689A7E7B
:1018C0007B689B7F104619460022002301F0C2FB73
:1018D000002318460837BD4680BD00BF80B485B0E0
:1018E00000AF7860234B1B7883F00103DBB2002B41
:1018F00010D00023BB6007E01F4ABB68002142F8FC
:101900002310BB680133BB60BB68032BF4D9194BB0
:1019100001221A700023FB730023BB6017E0164AF4
:10192000BB6852F82330002B06D0134ABB6852F82C
:1019300023207B689A4207D10F49BB687A6841F837
:1019400023200123FB7305E0BB680133BB60BB6848
:10195000032BE4D9FB7B83F00103DBB2002B01D026
:10196000064B00E0002318461437BD465DF8047BA3
:10197000704700BFE0030020E4030020027000F085
:1019800080B485B000AFF860B9607A60FB68BA686F
:101990005A62FB685B6A00221A80FB685B6A00225D
:1019A0005A80FB685B6A00229A80FB68002283F8F9
:1019B0002C20FB687A689A62FB689B6A00221A8076
:1019C000FB689B6A00225A80FB689B6A00229A800F
:1019D000FB68002283F82D20FB68002283F82F206B
:1019E0001437BD465DF8047B704700BF80B582B0F8
:1019F00000AF7860FFF756F87B685B7F18460949AF
:101A0000FFF760F87B6800229A757B6800221A75E0
:101A10007B6802225A757868FFF70AFA0837BD46D4
:101A200080BD00BF910D000080B582B000AF78602E
:101A3000FEF726FD7B68043318460021FEF7C6FC3E
:101A40000346002B01D0094B0BE07B680833184696
:101A50000021FEF7BBFC0346002B01D0034B00E046
:101A6000002318460837BD4680BD00BF0E7000F049
:101A7000B0B58AB000AF78603960874B07F10804D1
:101A80001D460FCD0FC495E8030084E803007B6872
:101A9000002B01D1814BFBE03B68002B01D1804B37
:101AA000F6E078680021342201F0D1FD7868FFF774
:101AB00015FF78627B6A002B01D07B6AE8E03B6807
:101AC0001A7C7B6883F831203B681A687B681A604F
:101AD0007B68002283F832203B681B68714A93427E
:101AE0000AD17B68704A1A627B68704ADA607B6848
:101AF0004FF440221A6141E03B681B686C4A9342F4
:101B00000AD17B686B4A1A627B686B4ADA607B6831
:101B10004FF450221A6131E03B681B68674A9342D8
:101B20000AD17B68664A1A627B68664ADA607B681B
:101B30004FF460221A6121E03B681B68624A9342BD
:101B40000AD17B68614A1A627B68614ADA607B6805
:101B50004FF430121A6111E03B681B685D4A9342F2
:101B60000AD17B685C4A1A627B685C4ADA607B68EF
:101B70004FF434121A6101E0494B89E03B689A69DD
:101B80003B68DB69786811461A46FFF7F9FE3B6847
:101B90005B683B613B685B893B833B689B89FB825D
:101BA0003B689B7B3B753B68DB7BBB7605237B758A
:101BB0004B48012100F0FAFB4A48012100F0F6FBF6
:101BC0007B681B6A1846012100F0F0FB00233B7282
:101BD0003B681A6807F108031046194601F0BAFB82
:101BE0003B681B683A68127A120242F003025A6597
:101BF00078683968FFF76EFB78627B6A002B01D04A
:101C00007B6A45E078680121FFF7B2FD78627B6A64
:101C1000002B01D07B6A3BE000F0CEFD38623B68D0
:101C20001B7C032B01D11E4B32E03B681B7C022B3B
:101C300002D17868FFF7DAFE3B681B6818464FF060
:101C4000FF31FEF7A5FF3B681B7C032B06D13B68E9
:101C50001B681846052101F045FB05E03B681B6841
:101C60001846042101F03EFB3B681B684FF44062BC
:101C7000DA60FEF705FC7868FFF7D6FE7862386A0E
:101C800000F0AAFD7B6A002B01D07B6A00E00023F4
:101C900018462837BD46B0BD7C360000027000F003
:101CA000037000F000C000400002040001000C00BE
:101CB00000C400400012040001000D0000C80040F4
:101CC0000022040001000E0000E000400032040089
:101CD00001002C0000E400400042040001002D003F
:101CE0004081040000D2040080B586B000AFF860E7
:101CF000B9607A60F868B9687A68FFF7C9FA38613C
:101D00003B69002B01D03B6972E000BFFB689B6A16
:101D10009B889BB2002B05D0FB6893F82E30DBB27A
:101D2000002BF3D0FB6893F83230002B06D1FB6810
:101D30001B681B6903F002037B610DE0FB6893F8ED
:101D40003230012B06D1FB681B689B6803F002034D
:101D50007B6101E000237B617B69002B02D1F86885
:101D6000FFF78EF9FB68012283F83020FB6893F8B7
:101D70003230002B18D109E0FB681968BB685A1C87
:101D8000BA601B780846194601F096FB7B685A1E1C
:101D90007A60002BF0D100BFFB681B681B6903F061
:101DA0002003002BF8D01CE0FB6893F83230012BA5
:101DB00017D109E0FB681968BB685A1CBA601B7828
:101DC0000846194601F0E4F97B685A1E7A60002B38
:101DD000F0D100BFFB681B689B6803F00803002B71
:101DE000F8D07B69002B02D1F868FFF78DF900234A
:101DF00018461837BD4680BD80B584B000AF786006
:101E00007B68002B01D11A4B2DE00023FB727B680D
:101E10005A6807F10B0310461946FEF703FCF860F9
:101E2000FB68002B1ED1FB7A002B1BD07B6893F83C
:101E30002E30DBB2002B0AD17868FEF78FFF034605
:101E4000002B04D17B685B681846FEF77FFB7B683C
:101E500093F82E30DBB20133DAB27B6883F82E20A0
:101E6000002300E0034B18461037BD4680BD00BF7D
:101E7000027000F0057000F080B584B000AF7860AB
:101E80007B68002B01D11D4B33E00023FB727B6884
:101E90005A6807F10B0310461946FEF7C3FBF860BA
:101EA000FB68002B24D17B6893F82E30DBB2002B2B
:101EB0001ED0FB7A002B1BD07B6893F82E30DBB250
:101EC000012B0AD17868FEF749FF0346002B04D1A5
:101ED0007B685B681846FEF76FFB7B6893F82E30D3
:101EE000DBB2013BDAB27B6883F82E20002300E0EE
:101EF000034B18461037BD4680BD00BF027000F08E
:101F0000057000F080B58CB000AFF860B9607A6001
:101F10003B60F868B9687A68FFF7BAF9F862FB6A5B
:101F2000002B01D0FB6A39E0BB687B617B68BB6139
:101F30007B68FB613B683B621A4B7B62FB68996A7A
:101F400007F1140207F11003084611461A46FEF77E
:101F5000D5FFF862FB6A002B01D0FB6A1EE0FB682C
:101F600093F82D30DBB283F00103DBB2002B14D0E9
:101F700000F022FCB862FB689B6A9B889BB2002B36
:101F800008D03B69F8681946FFF7F2F8FB680122B0
:101F900083F83020B86A00F01FFC00231846303761
:101FA000BD4680BD017000F080B487B000AFF8601E
:101FB000B9607A60FB6803F10473DA00BB6813440C
:101FC0009B007B617B697A681A601C37BD465DF8AF
:101FD000047B704780B485B000AF786039607B685F
:101FE00003F10473DA003B6813449B00FB60FB6859
:101FF0001B6818461437BD465DF8047B704700BF68
:1020000080B485B000AF78607B68002B04D07B681B
:10201000B3F5004F00D800BF7B68B3FA83F3C3F178
:102020001F03FB60FB6818461437BD465DF8047B50
:10203000704700BF80B400AF044BDB6C1B0EDBB2FB
:102040001846BD465DF8047B704700BFB081E00FC5
:1020500080B400AF054BDB6C03F47F031B0CDBB2D9
:102060001846BD465DF8047B704700BFB081E00FA5
:1020700080B582B000AFFFF7EBFF03464A2B04D0D8
:10208000792B02D0482B21D022E0144B1B699BB244
:1020900003F03F039BB21B02FB80104B9B6903F0D4
:1020A000F0039AB2FB881343FB800C4BDB6903F00F
:1020B000F0031B099AB2FB881343FB80FB88B3F53E
:1020C000017F01D3064B04E0064B02E0054B00E024
:1020D000002318460837BD4680BD00BFD0FF0FE083
:1020E00000366E010048E80180B584B000AF78602A
:1020F00039607A683B689A428CBF01230023DBB2C7
:10210000FB6006481E21FA68FFF74EFF04480821CD
:10211000FA68FFF749FF1037BD4680BD00800C40CC
:1021200004800C4080B582B000AF07481E21FFF745
:1021300051FF786005480821FFF74CFF38607B6845
:1021400018460837BD4680BD00800C4004800C4016
:1021500080B582B000AF214B5B6903F4E063B3F557
:10216000007F1CD0B3F5007F05D8002B25D0B3F538
:10217000807F1FD02AE0B3F5C06F24D0B3F5E06FA5
:102180001ED0B3F5407F21D1FFF754FF0346122B39
:1021900002D9134B7B601CE0124B7B6019E0FFF708
:1021A00049FF0346122B02D90F4B7B6011E00F4B06
:1021B0007B600EE00E4B7B600BE00E4B7B6008E01B
:1021C0000D4B7B6005E00D4B7B6002E000237B60E4
:1021D00000BF7B6818460837BD4680BD00800C40B4
:1021E000804F120040420F0040B56400C0CF6A002B
:1021F000C0D8A700809FD500406F4001003FAB01D1
:1022000080B582B000AF0D4800F028FA0346FB709D
:10221000FB78072B05D0082B07D1FEF707F878606D
:1022200006E0FFF795FF786002E000237B6000BFC7
:102230007B6818460837BD4680BD00BF06000C000D
:1022400090B585B000AF78600023BB607B68344AEE
:10225000934203D0334A934200D000E000BF786835
:1022600000F0FCF90346FB607B682D4A934203D0E3
:102270002C4A934206D00CE02B4B9B6A03F00303DD
:10228000FB6006E0284B9B6A03F00C039B08FB6095
:1022900000BFFB68032B3AD801A252F823F000BF1D
:1022A000D7220000B1220000B9220000C1220000A4
:1022B000FEF742F8B8602DE0FEF752F8B86029E06A
:1022C000FDF79AFF0446FFF72DFF0346013324FA7A
:1022D00003F3BB601EE00023BB607B68104A93429F
:1022E00003D07B680F4A934210D10F4B9A6A7B68E8
:1022F0000B498B4201D1102300E0142322FA03F38F
:10230000002B03D0FEF722F8B86003E002E00023C0
:10231000BB6000BFBB6818461437BD4690BD00BF08
:1023200002001A0003001C0000800C4080B483B03F
:1023300000AF7860094B5B6D03F00103002B00D008
:1023400006E000BF054B1A6D7B681340002BF9D1E6
:102350000C37BD465DF8047B704700BF00800C4021
:1023600080B582B000AF104800F078F90346FB70EA
:10237000FB78032B07D0082B09D0022B0BD1FDF7DC
:10238000EFFF78600AE0FDF7D7FF786006E0FDF721
:102390004DFF786002E000237B6000BF7B68184639
:1023A0000837BD4680BD00BF0723220090B587B027
:1023B00000AF78600B46FB7000233B617B681B0A13
:1023C00003F00F03013B092B49D801A252F823F077
:1023D000152400001B240000F92300005F240000E6
:1023E0005F240000212400002B2400005F24000053
:1023F0005F240000352400001B4B7B611B4800F06C
:1024000041F80446FFF734FE034620461946FFF71D
:102410006BFE12E0164B7B610FE0164B7B610CE00C
:10242000154B7B6101233B6107E0144B7B6110235B
:102430003B6102E0124B7B6100BF7B681B0B03F02A
:102440001F03FB603B69002B02D03869FFF76EFF6A
:10245000FB787869F9681A46FFF7A6FD00E000BF2F
:102460001C37BD4690BD00BF40800C4000430200B9
:1024700008800C4044800C4058800C4060800C4028
:1024800078800C4090B585B000AF78607B6803F42D
:102490007813B3F5B01F00F0AB80B3F5B01F1AD8B6
:1024A000B3F5402F00F0BF80B3F5402F08D8B3F547
:1024B000003F3CD0B3F5802F2DD0002B27D0BEE0BD
:1024C000B3F5801F3CD0B3F5A01F47D0B3F5602F04
:1024D00000F0AD80B3E0B3F5081F00F0AC80B3F5B9
:1024E000081F0AD8B3F5D01F25D0B3F5E01F7AD066
:1024F000B3F5C01F00F08980A1E0B3F5201F4ED0D6
:10250000B3F5281F62D0B3F5181F35D097E0FDF75B
:102510008DFEF86096E0FDF789FEF8604C4B9B68F5
:1025200003F00F031A46FB68D340FB608AE0FDF717
:1025300063FEF86086E04748FFF782FEF86081E0BE
:102540004448FFF77DFEF860414B9B6E03F0F003BB
:102550001B091A46FB68D340FB6073E03D48FFF758
:102560006FFEF8603A4B9B6E03F470631B0A1A46C9
:10257000FB68D340FB6065E03648FFF761FEF8601A
:10258000334B9B6E03F440531C0B1020FFF738FDB8
:10259000034623441A46FB68D340FB6052E02D48B3
:1025A000FFF74EFEF8602A4B9B6E03F440531B0B63
:1025B0001A46FB68D340FB60254BDB6F03F0070333
:1025C0000133FA68B2FBF3F3FB603BE02148FFF70D
:1025D00037FEF8601E4B9B6E03F003031A46FB6840
:1025E000D340FB602EE01C48FFF72AFEF86029E08C
:1025F0001948FFF725FEF860154B1B6F03F0030326
:102600001A46FB68D340FB601CE01348FFF718FE36
:10261000F8600F4B1B6F03F030031B091A46FB6871
:10262000D340FB600EE0FFF7EBFDF8600AE0FFF738
:102630008FFDF86006E0FFF793FEF86002E00023EC
:10264000FB6000BFFB6818461437BD4690BD00BF55
:1026500000800C4002001A0003001C0080B485B00A
:1026600000AF78600123FB737B6803F00F03BB604E
:10267000BB68013B062B00F2938001A252F823F0C5
:102680009D260000D32600000F270000A127000090
:10269000A12700004B2700006D270000454BDB6A97
:1026A00003F47053B3F5805F09D0B3F5005F03D036
:1026B000B3F5006F06D008E00223FB7308E00323A4
:1026C000FB7305E00423FB7302E00523FB7300BFEB
:1026D00069E0384B9B6A03F00303022B06D0032BFF
:1026E00007D0012B08D10323FB730FE00223FB73F8
:1026F0000CE00623FB7309E02E4B9B6A03F4803346
:10270000002B02D00923FB7300E000BF4BE0294BF4
:102710009B6A03F00C03082B06D00C2B07D0042B6C
:1027200008D10323FB730FE00223FB730CE00623A5
:10273000FB7309E01F4B9B6A03F48013002B02D04C
:102740000923FB7300E000BF2DE01A4B1B6803F068
:102750008053002B03D0B3F1805F03D023E0072325
:10276000FB7302E00823FB7300BF1CE0114BDB6A24
:1027700003F46033B3F5803F08D0B3F5003F08D0D1
:10278000B3F5004F08D10823FB7308E00223FB7365
:1027900005E00323FB7302E00123FB7300BF02E0AB
:1027A0000023FB7300BFFB7B18461437BD465DF862
:1027B000047B704700800C4080B483B000AFEFF31F
:1027C00010833B603B687B6072B67B6818460C37B1
:1027D000BD465DF8047B704780B483B000AF78607D
:1027E0007B68002B00D162B60C37BD465DF8047BD8
:1027F000704700BF80B483B000AF0346FB71084947
:1028000097F907305B09FA7902F01F02012000FAFC
:1028100002F241F823200C37BD465DF8047B704777
:1028200000E100E080B483B000AF0346FB710949CA
:1028300097F907305B09FA7902F01F02012000FACC
:1028400002F2203341F823200C37BD465DF8047BAB
:10285000704700BF00E100E080B483B000AF0346E2
:10286000FB71094997F907305B09FA7902F01F02F9
:10287000012000FA02F2603341F823200C37BD46F4
:102880005DF8047B704700BF00E100E080B487B0D2
:1028900000AFF860B9607A60FB6803F10473DA0096
:1028A000BB6813449B007B617B697A681A601C37A4
:1028B000BD465DF8047B704780B489B000AF786096
:1028C000084611461A460346FB700B46BB7013467A
:1028D0007B707B681A013C4B9B681344BB61BB78DF
:1028E000002B02D0BB69FB6105E07B681A01364B07
:1028F000DB681344FB61BB69DB687B617B69002B90
:1029000002D0BA787B691A72FB6A002B14D0FB697B
:102910009B6803F040639B0E3B613B69032B03D133
:10292000FB69FA6A1A6007E03B693A6B9A40FB6AF6
:1029300013441A46FB691A60BB6A002B12D0FB696C
:102940009B689B0F3B613B69032B03D1FB69BA6A10
:102950005A6007E03B693A6B9A40BB6A13441A46D7
:10296000FB695A607B68012202FA03F3FB607B7803
:10297000002B03D0144AFB68936102E0124AFB6803
:10298000D361BB78002B03D00F4AFB68536302E08E
:102990000D4AFB681363FB699B6823F47F5323F0A4
:1029A0003703BB603B6B1B01BA681343BB60FB780A
:1029B000BA681343BB60FB69BA689A602437BD46A6
:1029C0005DF8047B704700BF00200C4080B58AB0E2
:1029D00000AF334B03F580531B68BB61304B03F5ED
:1029E00080530C331B68BA691340BB612C4B9B6B43
:1029F0007B61BA697B6913403B620023FB6149E05C
:102A000000237B623BE03B6A03F00103002B30D0E4
:102A1000234B9B683B6101227B6A02FA03F3FB6054
:102A20001F4B03F580530833FA681A607B6A1B0159
:102A30003A691344DB68BB60BB68002B19D0BB68E4
:102A40001B7A7B60BB681B7A83F00103DAB2BB6838
:102A50001A72BB681B68002B0BD0BB681B68786AB6
:102A60007A68002A14BF01220022D1B2BA685268E3
:102A700098473B6A5B083B627B6A01337B623B6A37
:102A8000002BC0D17B69DA43BB6913403B62FB6911
:102A90000133FB61FB69012BB2DD2837BD4680BDE8
:102AA00000200C4090B589B004AFF8607B600B4605
:102AB000FB721346BB72FA7ABC7A7B6800933B6A5E
:102AC00001937B6A0293F86801212346FFF7F4FE25
:102AD000044AFB68012101FA03F393621437BD46EF
:102AE00090BD00BF00200C4090B589B004AFF860E5
:102AF0007A603B600B46FB72FC7A7B6A0093BB6A90
:102B00000193FB6A0293F868032100222346FFF732
:102B1000D3FEFC7A7B6800933B6801933B6A029387
:102B2000F868032101222346FFF7C6FE044AFB682A
:102B3000012101FA03F393621437BD4690BD00BF33
:102B400000200C4080B584B000AF786039601F4B26
:102B50009B68FB607B681B01FA6813443A689268C3
:102B6000DA603B681B78002B06D0184A7B6801218D
:102B700001FA03F3936305E0144A7B68012101FA2B
:102B800003F3D36311493B685A687B6803F5886394
:102B900041F823203B685B78002B0FD00B4A7B6801
:102BA000012101FA03F3194602F580530833196035
:102BB000074879680122FFF769FE04E00448796854
:102BC0000022FFF763FE1037BD4680BD00200C4099
:102BD0000C300C4080B487B000AFF8600B467A60D0
:102BE000FB72FB7A002B03D0154B9B687B6102E0E4
:102BF000134BDB687B61FB681B017A6913447B61C3
:102C00007B681B789A077B689B781B071A437B6855
:102C10005B789B061A437B689B781B0613431A4616
:102C20007B681B799B0413437A68D27892031A431A
:102C30007B699A601C37BD465DF8047B704700BF16
:102C400000200C4080B483B000AF7860084B9A6AD3
:102C50007B6822FA03F303F00103002B14BF012366
:102C60000023DBB218460C37BD465DF8047B704785
:102C700000200C4080B582B000AF78600B46FB703E
:102C8000FB78002B05D0074879680122FFF7FEFD8D
:102C900004E0054879680122FFF7F8FD0837BD46D2
:102CA00080BD00BF24200C4020200C4080B582B0A5
:102CB00000AF786010480121FFF778FB00F09CF826
:102CC0000020FFF7C9FD0020FFF794FD0B4B03F533
:102CD00080530C334FF000421A60084A7B685B68EF
:102CE0009360064A7B681B785B0143F001035360E5
:102CF0000837BD4680BD00BF0003020000200C4025
:102D000080B48BB000AFF8607B600B46FB7213465B
:102D1000BB7297F83830002B03D0012387F8273097
:102D200002E0032387F82730FB7A002B06D0FB68EC
:102D30001A01304B9B6813443B6205E0FB681A01A3
:102D40002C4BDB6813443B623B6B002B14D03B6A7B
:102D50009B6803F040639B0EFB61FB69032B03D16F
:102D60003B6A3A6B1A6007E0FB697A6B9A403B6BEF
:102D700013441A463B6A1A607B68002B12D03B6AE8
:102D80009B689B0FFB61FB69032B03D13B6A7A684D
:102D90005A6007E0FB697A6B9A407B6813441A46D5
:102DA0003B6A5A60FB68012202FA03F3BB61BB7AFB
:102DB000002B03D00F4ABB69936102E00D4ABB6947
:102DC000D3613B6A9B6823F47F5323F037037B6115
:102DD0007B6B1B017A6913437B6197F827307A6913
:102DE00013437B613B6A7A699A602C37BD465DF874
:102DF000047B704700200C4080B582B000AF0020FB
:102E0000FFF710FD1C4B00225A601B4B40F6FF726F
:102E1000DA61194B40F6FF725A62174B40F6FF72A7
:102E2000DA62154B40F6FF725A63134B40F6FF729D
:102E3000DA63114B0122DA640F4B03F580530C3334
:102E400000221A600C4B03F5805308330B4A1A60BA
:102E500000237B6009E0084A7B6803F58863002152
:102E600042F823107B6801337B607B680B2BF2DD1B
:102E70000837BD4680BD00BF00200C40FF0F00801A
:102E800080B487B000AFF860B9607A60FB6803F186
:102E90000473DA00BB6813449B007B617B697A682A
:102EA0001A601C37BD465DF8047B704780B485B05E
:102EB00000AFF860B9607A60FB681A68BB68DB43F2
:102EC0001A407B681A43FB681A601437BD465DF8E8
:102ED000047B704780B483B000AF03463960FB7158
:102EE000FB79002B0DD0FB79012B0AD0FB79022B4B
:102EF00007D0FB79032B04D0FB79042B01D0FB799D
:102F0000052B0949FA793B68012000FA03F31846BA
:102F10001346DB0013449B000B44103358600C37FE
:102F2000BD465DF8047B70470060004080B483B00C
:102F300000AF03463960FB71FB79002B0DD0FB79A4
:102F4000012B0AD0FB79022B07D0FB79032B04D08D
:102F5000FB79042B01D0FB79052B0949FA793B68F1
:102F6000012000FA03F318461346DB0013449B00CC
:102F70000B44103318600C37BD465DF8047B704776
:102F80000060004080B586B000AFB9607A601A4634
:102F90000346FB731346BB73FB7B002B0DD0FB7BFF
:102FA000012B0AD0FB7B022B07D0FB7B032B04D029
:102FB000FB7B042B01D0FB7B052B7B68072B0ED8FA
:102FC0007B689B001A46072303FA02F1FB7B7A68B1
:102FD0009200934019481A46FFF768FF10E07B689B
:102FE000083B7B617B699B001A46072303FA02F1C9
:102FF000FB7B7A699200934011481A46FFF756FF0F
:10300000BB7B104879681A46FFF73AFF97F82030E3
:103010000D4879681A46FFF733FF0C4A7B68012197
:1030200001FA03F3C2F81C3197F824300848796894
:103030001A46FFF725FF1837BD4680BD00610040E6
:1030400004610040086100400C61004000600040E5
:103050001061004090B585B000AFB9607B60034659
:10306000FB731346BB73FB7B002B0DD0FB7B012B4B
:103070000AD0FB7B022B07D0FB7B032B04D0FB7B0E
:10308000042B01D0FB7B052BBB7B002B0DD07B6879
:10309000002B05D0FB7B1846B968FFF747FF04E01B
:1030A000FB7B1846B968FFF715FFBB68072B1CD8D8
:1030B0002A4CFA7B2948F97B0B46DB000B449B002A
:1030C00003445B68B968890008460F218140C94301
:1030D0000B40B97BB8688000814019431346DB0080
:1030E00013449B002344596024E01C4CFA7B1B488A
:1030F000F97B0B46DB000B449B0003440833196843
:10310000BB6803F18043083B9B0018460F238340B4
:10311000DB431940B87BBB6803F18043083B9B004D
:1031200000FA03F319431346DB0013449B002344C6
:1031300008331960BB7B002B0DD17B68002B05D0B9
:10314000FB7B1846B968FFF7F1FE04E0FB7B1846ED
:10315000B968FFF7BFFE1437BD4690BD0060004060
:1031600080B483B000AF786039607B681B6C03F07B
:103170000103002B00D006E000BF7B685A6C3B685F
:103180001340002BF9D10C37BD465DF8047B704726
:1031900080B582B000AF78600B46FB7000BF7B68E3
:1031A0009B6803F01003002BF9D078684021FFF7EB
:1031B000D7FFFA787B689A620837BD4680BD00BFAA
:1031C00080B485B000AF7860194B5B69DBB203F067
:1031D0000F03DBB29B00FB73154B1B6903F0C003AD
:1031E0009B09DAB2FB7B1343FB737B68FA7B9A7013
:1031F0000F4B1B69DBB203F03F03DAB27B685A70F6
:103200000B4B9B69DBB223F00F03FB73084BDB69AD
:1032100003F0F0031B09DAB2FB7B1343FB737B68FB
:10322000FA7B1A701437BD465DF8047B704700BF07
:10323000D0FF0FE080B586B000AFF860B9607A606B
:10324000FB70BB68002B03D12448FFF71BF9B86063
:10325000FB78202B0CD0202B02DC002B05D03AE091
:10326000402B08D0602B09D035E010237B6108E0AB
:1032700008237B6105E006237B6102E004237B6178
:1032800000BFBB689A007B69796801FB03F35B08A8
:1032900013443B617B697A6802FB03F33A69B2FB32
:1032A000F3F33B613B69043B3B613B699B013B6141
:1032B0003A690B4B13403B61FB681B6823F06002CB
:1032C000FB681A60FB681A68FB781A43FB681A608F
:1032D000FB683A695A611837BD4680BD40810400D9
:1032E000C0FF1F0080B485B000AF78600B46FB7054
:1032F0007B68134A93420FD07B68124A93420BD0EB
:103300007B68114A934207D07B68104A934203D0EE
:103310007B680F4A934200D100BFFB78DB43FB6020
:10332000FB6803F00503FB60FB685A007B68DA600A
:10333000FA787B68DA601437BD465DF8047B704725
:1033400000C0004000C4004000C8004000E0004051
:1033500000E4004080B582B000AF786039607B68DF
:10336000244A93420FD07B68234A93420BD07B6858
:10337000224A934207D07B68214A934203D07B685C
:10338000204A934200D100BF786800F03DF83B68C6
:103390009B7C002B05D07B681B6843F080427B68D8
:1033A0001A603B68DB7C002B07D03B681B7D43F039
:1033B0001003DBB21A467B689A653B685B7B1A4652
:1033C0003B681B8A13433A68D2891A437B685A6068
:1033D0003B6859683B689A683B681B7B7868FFF7D5
:1033E00029FF3B681B781A467B68DA600837BD46C0
:1033F00080BD00BF00C0004000C4004000C80040C5
:1034000000E0004000E4004080B483B000AF78608A
:103410007B68244A93420FD07B68234A93420BD0A7
:103420007B68224A934207D07B68214A934203D0AB
:103430007B68204A934200D100BF7B6840F6AA62B5
:10344000DA607B6800221A607B6841F205025A60EC
:103450007B6800229A607B6800225A617B680022A8
:10346000DA647B6841F6F9729A647B6800225A65D7
:103470007B680C4A934202D17B6800221A657B6804
:1034800000229A657B68084A934203D07B68074A0A
:10349000934202D17B680022DA650C37BD465DF8A5
:1034A000047B704700C0004000C4004000C80040DA
:1034B00000E0004000E4004080B483B000AF7860DA
:1034C0000B46FB7000BF7B681B6903F04003002BB9
:1034D000F9D0FA787B685A630C37BD465DF8047BF7
:1034E000704700BF80B582B000AF0C4B1B687B609B
:1034F0003B461846FFF764FE7B681B0E0F2B0AD96C
:103500003B78032B07D1064A054B1B6823F0500379
:1035100043F0100313600837BD4680BDFC81E00F07
:10352000C0800C4080B485B000AFF860B9607A60AC
:103530003B601437BD465DF8047B7047B0B588B07A
:1035400000AF0F4B00221A700E4B3C461D460FCDAC
:103550000FC495E80F0084E80F000B4B1A683B4638
:1035600010461946FEF784FA074B1B6818460749B0
:103570004022074BFEF7C6FC2037BD46B0BD00BF5A
:1035800008010020A43600000C01002034060020B1
:103590002535000080B500AFFFF7A4FF06480749B6
:1035A000172200F049F8FFF7C9FF054B1B78002BE5
:1035B00001D0FFF7C3FFF8E734060020C43600004F
:1035C0000801002008B5074B044613B10021AFF3F2
:1035D0000080054B1868836A03B19847204600F0C5
:1035E0003FF800BF00000000E03600000E4B70B551
:1035F0001E460E4C0025E41AA410A54204D056F82D
:10360000253098470135F8E700F02CF8084B094CB5
:103610001E46E41AA4100025A54204D056F8253011
:1036200098470135F8E770BD700100207001002057
:10363000700100207401002010B5431E0A4491421D
:1036400004D011F8014B03F8014FF8E710BD034611
:103650000244934202D003F8011BFAE770470000CE
:10366000FEE700BFF8B500BFF8BC08BC9E46704737
:10367000F8B500BFF8BC08BC9E46704705000000C6
:103680000000000000C20100000500000010000062
:103690000000000005000000000000008025000080
:1036A0000000000000E4004000C201000200001021
:1036B00000000000000100010000000008000020E0
:1036C0008800002074657374696E672055415254F8
:1036D000206E756D62657220310A004300000000A3
:0836E0001001002000000000B1
:0836E80050CAFF7F0100000041
:1036F000006CDC02008000000000000000000600FA
:1037000000000000000000000000000000000000B9
:1037100000000000000000000000000000000000A9
:103720000000000000000000000000000000000099
:103730000000000000000000000000000000000089
:103740000000000000000000000000000000000079
:103750000000000000000000000000000000000069
:103760000000000000000000000000000000000059
:103770000000000000000000000000000000060043
:103780000000000000000000000000000000000039
:103790000000000000000000000000000000000029
:1037A0000000000000000000000000000000000019
:1037B0000000000000000000000000000000000009
:1037C00000000000000000000000000000000000F9
:1037D00000000000000000000000000000000000E9
:1037E00000000000000000000000000000000000D9
:1037F00000000000000000000100000000060020A2
:1038000000000000000000000000000000000000B8
:1038100000000000000000000000000000000000A8
:10382000DB36000000000000000000000000000087
:103830000000000000000000000000000000000088
:103840000000000000000000000000000000000078
:103850000000000000000000000000000000000068
:0C38600001010000DD000000000000007D
:04000003000001AD4B
:00000001FF
