Archive member included because of file (symbol)

/Applications/Simplicity Studio.app/Contents/Eclipse/developer/toolchains/gnu_arm/4.9_2015q3/bin/../lib/gcc/arm-none-eabi/4.9.3/armv7-m/libgcc.a(_aeabi_uldivmod.o)
                              ./emlib/em_usart.o (__aeabi_uldivmod)
/Applications/Simplicity Studio.app/Contents/Eclipse/developer/toolchains/gnu_arm/4.9_2015q3/bin/../lib/gcc/arm-none-eabi/4.9.3/armv7-m/libgcc.a(bpabi.o)
                              /Applications/Simplicity Studio.app/Contents/Eclipse/developer/toolchains/gnu_arm/4.9_2015q3/bin/../lib/gcc/arm-none-eabi/4.9.3/armv7-m/libgcc.a(_aeabi_uldivmod.o) (__gnu_uldivmod_helper)
/Applications/Simplicity Studio.app/Contents/Eclipse/developer/toolchains/gnu_arm/4.9_2015q3/bin/../lib/gcc/arm-none-eabi/4.9.3/armv7-m/libgcc.a(_dvmd_tls.o)
                              /Applications/Simplicity Studio.app/Contents/Eclipse/developer/toolchains/gnu_arm/4.9_2015q3/bin/../lib/gcc/arm-none-eabi/4.9.3/armv7-m/libgcc.a(_aeabi_uldivmod.o) (__aeabi_ldiv0)
/Applications/Simplicity Studio.app/Contents/Eclipse/developer/toolchains/gnu_arm/4.9_2015q3/bin/../lib/gcc/arm-none-eabi/4.9.3/armv7-m/libgcc.a(_divdi3.o)
                              /Applications/Simplicity Studio.app/Contents/Eclipse/developer/toolchains/gnu_arm/4.9_2015q3/bin/../lib/gcc/arm-none-eabi/4.9.3/armv7-m/libgcc.a(bpabi.o) (__divdi3)
/Applications/Simplicity Studio.app/Contents/Eclipse/developer/toolchains/gnu_arm/4.9_2015q3/bin/../lib/gcc/arm-none-eabi/4.9.3/armv7-m/libgcc.a(_udivdi3.o)
                              /Applications/Simplicity Studio.app/Contents/Eclipse/developer/toolchains/gnu_arm/4.9_2015q3/bin/../lib/gcc/arm-none-eabi/4.9.3/armv7-m/libgcc.a(bpabi.o) (__udivdi3)
/Applications/Simplicity Studio.app/Contents/Eclipse/developer/toolchains/gnu_arm/4.9_2015q3/bin/../lib/gcc/arm-none-eabi/4.9.3/../../../../arm-none-eabi/lib/armv7-m/libc_nano.a(lib_a-exit.o)
                              /Applications/Simplicity Studio.app/Contents/Eclipse/developer/toolchains/gnu_arm/4.9_2015q3/bin/../lib/gcc/arm-none-eabi/4.9.3/../../../../arm-none-eabi/lib/armv7-m/crt0.o (exit)
/Applications/Simplicity Studio.app/Contents/Eclipse/developer/toolchains/gnu_arm/4.9_2015q3/bin/../lib/gcc/arm-none-eabi/4.9.3/../../../../arm-none-eabi/lib/armv7-m/libc_nano.a(lib_a-impure.o)
                              /Applications/Simplicity Studio.app/Contents/Eclipse/developer/toolchains/gnu_arm/4.9_2015q3/bin/../lib/gcc/arm-none-eabi/4.9.3/../../../../arm-none-eabi/lib/armv7-m/libc_nano.a(lib_a-exit.o) (_global_impure_ptr)
/Applications/Simplicity Studio.app/Contents/Eclipse/developer/toolchains/gnu_arm/4.9_2015q3/bin/../lib/gcc/arm-none-eabi/4.9.3/../../../../arm-none-eabi/lib/armv7-m/libc_nano.a(lib_a-init.o)
                              /Applications/Simplicity Studio.app/Contents/Eclipse/developer/toolchains/gnu_arm/4.9_2015q3/bin/../lib/gcc/arm-none-eabi/4.9.3/../../../../arm-none-eabi/lib/armv7-m/crt0.o (__libc_init_array)
/Applications/Simplicity Studio.app/Contents/Eclipse/developer/toolchains/gnu_arm/4.9_2015q3/bin/../lib/gcc/arm-none-eabi/4.9.3/../../../../arm-none-eabi/lib/armv7-m/libc_nano.a(lib_a-memcpy.o)
                              ./emdrv/uartdrv.o (memcpy)
/Applications/Simplicity Studio.app/Contents/Eclipse/developer/toolchains/gnu_arm/4.9_2015q3/bin/../lib/gcc/arm-none-eabi/4.9.3/../../../../arm-none-eabi/lib/armv7-m/libc_nano.a(lib_a-memset.o)
                              /Applications/Simplicity Studio.app/Contents/Eclipse/developer/toolchains/gnu_arm/4.9_2015q3/bin/../lib/gcc/arm-none-eabi/4.9.3/../../../../arm-none-eabi/lib/armv7-m/crt0.o (memset)
/Applications/Simplicity Studio.app/Contents/Eclipse/developer/toolchains/gnu_arm/4.9_2015q3/bin/../lib/gcc/arm-none-eabi/4.9.3/../../../../arm-none-eabi/lib/armv7-m/libnosys.a(_exit.o)
                              /Applications/Simplicity Studio.app/Contents/Eclipse/developer/toolchains/gnu_arm/4.9_2015q3/bin/../lib/gcc/arm-none-eabi/4.9.3/../../../../arm-none-eabi/lib/armv7-m/libc_nano.a(lib_a-exit.o) (_exit)

Allocating common symbols
Common symbol       size              file

SystemCoreClock     0x4               ./CMSIS/EFM32GG/system_efm32gg.o
handleData          0x34              ./src/main.o
dmaControlBlock     0x200             ./emdrv/dmactrl.o
buffer              0x40              ./src/main.o

Discarded input sections

 .text          0x0000000000000000        0x0 /Applications/Simplicity Studio.app/Contents/Eclipse/developer/toolchains/gnu_arm/4.9_2015q3/bin/../lib/gcc/arm-none-eabi/4.9.3/armv7-m/crti.o
 .data          0x0000000000000000        0x0 /Applications/Simplicity Studio.app/Contents/Eclipse/developer/toolchains/gnu_arm/4.9_2015q3/bin/../lib/gcc/arm-none-eabi/4.9.3/armv7-m/crti.o
 .bss           0x0000000000000000        0x0 /Applications/Simplicity Studio.app/Contents/Eclipse/developer/toolchains/gnu_arm/4.9_2015q3/bin/../lib/gcc/arm-none-eabi/4.9.3/armv7-m/crti.o
 .data          0x0000000000000000        0x4 /Applications/Simplicity Studio.app/Contents/Eclipse/developer/toolchains/gnu_arm/4.9_2015q3/bin/../lib/gcc/arm-none-eabi/4.9.3/armv7-m/crtbegin.o
 .data          0x0000000000000000        0x0 /Applications/Simplicity Studio.app/Contents/Eclipse/developer/toolchains/gnu_arm/4.9_2015q3/bin/../lib/gcc/arm-none-eabi/4.9.3/../../../../arm-none-eabi/lib/armv7-m/crt0.o
 .bss           0x0000000000000000        0x0 /Applications/Simplicity Studio.app/Contents/Eclipse/developer/toolchains/gnu_arm/4.9_2015q3/bin/../lib/gcc/arm-none-eabi/4.9.3/../../../../arm-none-eabi/lib/armv7-m/crt0.o
 .ARM.extab     0x0000000000000000        0x0 /Applications/Simplicity Studio.app/Contents/Eclipse/developer/toolchains/gnu_arm/4.9_2015q3/bin/../lib/gcc/arm-none-eabi/4.9.3/../../../../arm-none-eabi/lib/armv7-m/crt0.o
 .data          0x0000000000000000        0x0 ./CMSIS/EFM32GG/startup_gcc_efm32gg.o
 .bss           0x0000000000000000        0x0 ./CMSIS/EFM32GG/startup_gcc_efm32gg.o
 .text          0x0000000000000000        0x0 ./CMSIS/EFM32GG/system_efm32gg.o
 .data          0x0000000000000000        0x0 ./CMSIS/EFM32GG/system_efm32gg.o
 .bss           0x0000000000000000        0x0 ./CMSIS/EFM32GG/system_efm32gg.o
 .text.SystemMaxCoreClockGet
                0x0000000000000000       0x14 ./CMSIS/EFM32GG/system_efm32gg.o
 .text.SystemHFXOClockGet
                0x0000000000000000       0x18 ./CMSIS/EFM32GG/system_efm32gg.o
 .text.SystemHFXOClockSet
                0x0000000000000000       0x2c ./CMSIS/EFM32GG/system_efm32gg.o
Memory Configuration

Name             Origin             Length             Attributes
FLASH            0x0000000000000000 0x0000000000100000 xr
RAM              0x0000000020000000 0x0000000000020000 xrw
*default*        0x0000000000000000 0xffffffffffffffff

Linker script and memory map

LOAD /Applications/Simplicity Studio.app/Contents/Eclipse/developer/toolchains/gnu_arm/4.9_2015q3/bin/../lib/gcc/arm-none-eabi/4.9.3/armv7-m/crti.o
LOAD /Applications/Simplicity Studio.app/Contents/Eclipse/developer/toolchains/gnu_arm/4.9_2015q3/bin/../lib/gcc/arm-none-eabi/4.9.3/armv7-m/crtbegin.o
LOAD /Applications/Simplicity Studio.app/Contents/Eclipse/developer/toolchains/gnu_arm/4.9_2015q3/bin/../lib/gcc/arm-none-eabi/4.9.3/../../../../arm-none-eabi/lib/armv7-m/crt0.o
LOAD ./CMSIS/EFM32GG/startup_gcc_efm32gg.o
LOAD ./CMSIS/EFM32GG/system_efm32gg.o
LOAD ./emdrv/dmactrl.o
LOAD ./emdrv/dmadrv.o
LOAD ./emdrv/gpiointerrupt.o
LOAD ./emdrv/uartdrv.o
LOAD ./emlib/em_assert.o
LOAD ./emlib/em_cmu.o
LOAD ./emlib/em_core.o
LOAD ./emlib/em_dma.o
LOAD ./emlib/em_emu.o
LOAD ./emlib/em_gpio.o
LOAD ./emlib/em_leuart.o
LOAD ./emlib/em_system.o
LOAD ./emlib/em_usart.o
LOAD ./src/InitDevice.o
LOAD ./src/main.o
START GROUP
LOAD /Applications/Simplicity Studio.app/Contents/Eclipse/developer/toolchains/gnu_arm/4.9_2015q3/bin/../lib/gcc/arm-none-eabi/4.9.3/armv7-m/libgcc.a
LOAD /Applications/Simplicity Studio.app/Contents/Eclipse/developer/toolchains/gnu_arm/4.9_2015q3/bin/../lib/gcc/arm-none-eabi/4.9.3/../../../../arm-none-eabi/lib/armv7-m/libc_nano.a
LOAD /Applications/Simplicity Studio.app/Contents/Eclipse/developer/toolchains/gnu_arm/4.9_2015q3/bin/../lib/gcc/arm-none-eabi/4.9.3/../../../../arm-none-eabi/lib/armv7-m/libnosys.a
END GROUP
START GROUP
LOAD /Applications/Simplicity Studio.app/Contents/Eclipse/developer/toolchains/gnu_arm/4.9_2015q3/bin/../lib/gcc/arm-none-eabi/4.9.3/armv7-m/libgcc.a
LOAD /Applications/Simplicity Studio.app/Contents/Eclipse/developer/toolchains/gnu_arm/4.9_2015q3/bin/../lib/gcc/arm-none-eabi/4.9.3/../../../../arm-none-eabi/lib/armv7-m/libg_nano.a
LOAD /Applications/Simplicity Studio.app/Contents/Eclipse/developer/toolchains/gnu_arm/4.9_2015q3/bin/../lib/gcc/arm-none-eabi/4.9.3/../../../../arm-none-eabi/lib/armv7-m/libc_nano.a
END GROUP
START GROUP
LOAD /Applications/Simplicity Studio.app/Contents/Eclipse/developer/toolchains/gnu_arm/4.9_2015q3/bin/../lib/gcc/arm-none-eabi/4.9.3/armv7-m/libgcc.a
LOAD /Applications/Simplicity Studio.app/Contents/Eclipse/developer/toolchains/gnu_arm/4.9_2015q3/bin/../lib/gcc/arm-none-eabi/4.9.3/../../../../arm-none-eabi/lib/armv7-m/libc_nano.a
END GROUP
LOAD /Applications/Simplicity Studio.app/Contents/Eclipse/developer/toolchains/gnu_arm/4.9_2015q3/bin/../lib/gcc/arm-none-eabi/4.9.3/armv7-m/crtend.o
LOAD /Applications/Simplicity Studio.app/Contents/Eclipse/developer/toolchains/gnu_arm/4.9_2015q3/bin/../lib/gcc/arm-none-eabi/4.9.3/armv7-m/crtn.o

.text           0x0000000000000000     0x36e8
 *(.vectors)
 .vectors       0x0000000000000000       0xdc ./CMSIS/EFM32GG/startup_gcc_efm32gg.o
                0x0000000000000000                __Vectors
                0x00000000000000dc                __Vectors_End = .
                0x00000000000000dc                __Vectors_Size = (__Vectors_End - __Vectors)
                0x00000000000000dc                __end__ = .
 *(.text*)
 .text          0x00000000000000dc       0x5c /Applications/Simplicity Studio.app/Contents/Eclipse/developer/toolchains/gnu_arm/4.9_2015q3/bin/../lib/gcc/arm-none-eabi/4.9.3/armv7-m/crtbegin.o
 .text          0x0000000000000138       0x74 /Applications/Simplicity Studio.app/Contents/Eclipse/developer/toolchains/gnu_arm/4.9_2015q3/bin/../lib/gcc/arm-none-eabi/4.9.3/../../../../arm-none-eabi/lib/armv7-m/crt0.o
                0x0000000000000138                _mainCRTStartup
                0x0000000000000138                _start
 .text          0x00000000000001ac       0x30 ./CMSIS/EFM32GG/startup_gcc_efm32gg.o
                0x00000000000001ac                Reset_Handler
                0x00000000000001d8                DebugMon_Handler
                0x00000000000001d8                USART0_TX_IRQHandler
                0x00000000000001d8                I2C0_IRQHandler
                0x00000000000001d8                HardFault_Handler
                0x00000000000001d8                LEUART1_IRQHandler
                0x00000000000001d8                SysTick_Handler
                0x00000000000001d8                USART1_RX_IRQHandler
                0x00000000000001d8                PendSV_Handler
                0x00000000000001d8                NMI_Handler
                0x00000000000001d8                I2C1_IRQHandler
                0x00000000000001d8                TIMER3_IRQHandler
                0x00000000000001d8                USART1_TX_IRQHandler
                0x00000000000001d8                MSC_IRQHandler
                0x00000000000001d8                ADC0_IRQHandler
                0x00000000000001d8                UsageFault_Handler
                0x00000000000001d8                LEUART0_IRQHandler
                0x00000000000001d8                UART0_TX_IRQHandler
                0x00000000000001d8                UART1_TX_IRQHandler
                0x00000000000001d8                RTC_IRQHandler
                0x00000000000001d8                TIMER0_IRQHandler
                0x00000000000001d8                LCD_IRQHandler
                0x00000000000001d8                PCNT2_IRQHandler
                0x00000000000001d8                UART0_RX_IRQHandler
                0x00000000000001d8                LETIMER0_IRQHandler
                0x00000000000001d8                TIMER1_IRQHandler
                0x00000000000001d8                USART2_RX_IRQHandler
                0x00000000000001d8                Default_Handler
                0x00000000000001d8                EMU_IRQHandler
                0x00000000000001d8                PCNT0_IRQHandler
                0x00000000000001d8                USB_IRQHandler
                0x00000000000001d8                BURTC_IRQHandler
                0x00000000000001d8                PCNT1_IRQHandler
                0x00000000000001d8                ACMP0_IRQHandler
                0x00000000000001d8                USART0_RX_IRQHandler
                0x00000000000001d8                MemManage_Handler
                0x00000000000001d8                SVC_Handler
                0x00000000000001d8                DAC0_IRQHandler
                0x00000000000001d8                UART1_RX_IRQHandler
                0x00000000000001d8                CMU_IRQHandler
                0x00000000000001d8                EBI_IRQHandler
                0x00000000000001d8                LESENSE_IRQHandler
                0x00000000000001d8                AES_IRQHandler
                0x00000000000001d8                VCMP_IRQHandler
                0x00000000000001d8                BusFault_Handler
                0x00000000000001d8                TIMER2_IRQHandler
                0x00000000000001d8                USART2_TX_IRQHandler
 .text.GetProdRev
                0x00000000000001dc       0x1c ./CMSIS/EFM32GG/system_efm32gg.o
 .text.SystemCoreClockGet
                0x00000000000001f8       0x34 ./CMSIS/EFM32GG/system_efm32gg.o
                0x00000000000001f8                SystemCoreClockGet
 .text.SystemHFClockGet
                0x000000000000022c      0x100 ./CMSIS/EFM32GG/system_efm32gg.o
                0x000000000000022c                SystemHFClockGet
 .text.SystemInit
                0x000000000000032c        0xc ./CMSIS/EFM32GG/system_efm32gg.o
                0x000000000000032c                SystemInit
 .text.SystemLFRCOClockGet
                0x0000000000000338       0x14 ./CMSIS/EFM32GG/system_efm32gg.o
                0x0000000000000338                SystemLFRCOClockGet
 .text.SystemULFRCOClockGet
                0x000000000000034c       0x14 ./CMSIS/EFM32GG/system_efm32gg.o
                0x000000000000034c                SystemULFRCOClockGet
 .text.SystemLFXOClockGet
                0x0000000000000360       0x18 ./CMSIS/EFM32GG/system_efm32gg.o
                0x0000000000000360                SystemLFXOClockGet
 .text.NVIC_SetPriority
                0x0000000000000378       0x54 ./emdrv/dmadrv.o
 .text.DMADRV_AllocateChannel
                0x00000000000003cc       0xb4 ./emdrv/dmadrv.o
                0x00000000000003cc                DMADRV_AllocateChannel
 .text.DMADRV_Init
                0x0000000000000480       0x84 ./emdrv/dmadrv.o
                0x0000000000000480                DMADRV_Init
 .text.DMADRV_MemoryPeripheral
                0x0000000000000504       0x48 ./emdrv/dmadrv.o
                0x0000000000000504                DMADRV_MemoryPeripheral
 .text.DMADRV_PauseTransfer
                0x000000000000054c       0x6c ./emdrv/dmadrv.o
                0x000000000000054c                DMADRV_PauseTransfer
 .text.DMADRV_ResumeTransfer
                0x00000000000005b8       0x6c ./emdrv/dmadrv.o
                0x00000000000005b8                DMADRV_ResumeTransfer
 .text.DMADRV_TransferActive
                0x0000000000000624       0x84 ./emdrv/dmadrv.o
                0x0000000000000624                DMADRV_TransferActive
 .text.DmaBasicCallback
                0x00000000000006a8       0x4c ./emdrv/dmadrv.o
 .text.DmaPingPongCallback
                0x00000000000006f4       0x8c ./emdrv/dmadrv.o
 .text.StartTransfer
                0x0000000000000780      0x250 ./emdrv/dmadrv.o
 .text.NVIC_EnableIRQ
                0x00000000000009d0       0x30 ./emdrv/gpiointerrupt.o
 .text.NVIC_ClearPendingIRQ
                0x0000000000000a00       0x34 ./emdrv/gpiointerrupt.o
 .text.GPIO_IntClear
                0x0000000000000a34       0x20 ./emdrv/gpiointerrupt.o
 .text.GPIO_IntGetEnabled
                0x0000000000000a54       0x28 ./emdrv/gpiointerrupt.o
 .text.SL_CTZ   0x0000000000000a7c       0x28 ./emdrv/gpiointerrupt.o
 .text.GPIOINT_Init
                0x0000000000000aa4       0x20 ./emdrv/gpiointerrupt.o
                0x0000000000000aa4                GPIOINT_Init
 .text.GPIOINT_CallbackRegister
                0x0000000000000ac4       0x2c ./emdrv/gpiointerrupt.o
                0x0000000000000ac4                GPIOINT_CallbackRegister
 .text.GPIOINT_IRQDispatcher
                0x0000000000000af0       0x50 ./emdrv/gpiointerrupt.o
 .text.GPIO_EVEN_IRQHandler
                0x0000000000000b40       0x28 ./emdrv/gpiointerrupt.o
                0x0000000000000b40                GPIO_EVEN_IRQHandler
 .text.GPIO_ODD_IRQHandler
                0x0000000000000b68       0x28 ./emdrv/gpiointerrupt.o
                0x0000000000000b68                GPIO_ODD_IRQHandler
 .text.USART_IntClear
                0x0000000000000b90       0x1c ./emdrv/uartdrv.o
 .text.BUS_RegBitRead
                0x0000000000000bac       0x2c ./emdrv/uartdrv.o
 .text.GPIO_PinInGet
                0x0000000000000bd8       0x54 ./emdrv/uartdrv.o
 .text.GPIO_PinOutClear
                0x0000000000000c2c       0x58 ./emdrv/uartdrv.o
 .text.GPIO_PinOutSet
                0x0000000000000c84       0x58 ./emdrv/uartdrv.o
 .text.GPIO_IntConfig
                0x0000000000000cdc       0x38 ./emdrv/uartdrv.o
 .text.HwFcCtsIrqGetDrvHandle
                0x0000000000000d14       0x48 ./emdrv/uartdrv.o
 .text.HwFcGetClearToSendPin
                0x0000000000000d5c       0x34 ./emdrv/uartdrv.o
 .text.HwFcManageClearToSend
                0x0000000000000d90       0xa0 ./emdrv/uartdrv.o
 .text.FcApplyState
                0x0000000000000e30       0xcc ./emdrv/uartdrv.o
 .text.EnqueueBuffer
                0x0000000000000efc       0xa8 ./emdrv/uartdrv.o
 .text.DequeueBuffer
                0x0000000000000fa4       0x84 ./emdrv/uartdrv.o
 .text.GetTailBuffer
                0x0000000000001028       0x58 ./emdrv/uartdrv.o
 .text.EnableTransmitter
                0x0000000000001080       0x88 ./emdrv/uartdrv.o
 .text.DisableTransmitter
                0x0000000000001108       0x68 ./emdrv/uartdrv.o
 .text.StartTransmitDma
                0x0000000000001170       0x84 ./emdrv/uartdrv.o
 .text.TransmitDmaComplete
                0x00000000000011f4       0x9c ./emdrv/uartdrv.o
 .text.CheckParams
                0x0000000000001290       0x44 ./emdrv/uartdrv.o
 .text.SetupGpioUart
                0x00000000000012d4      0x49c ./emdrv/uartdrv.o
 .text.ConfigGpio
                0x0000000000001770      0x16c ./emdrv/uartdrv.o
 .text.SetHandleIndex
                0x00000000000018dc       0xa4 ./emdrv/uartdrv.o
 .text.InitializeQueues
                0x0000000000001980       0x6c ./emdrv/uartdrv.o
 .text.InitializeGpioFlowControl
                0x00000000000019ec       0x3c ./emdrv/uartdrv.o
 .text.InitializeDma
                0x0000000000001a28       0x48 ./emdrv/uartdrv.o
 .text.UARTDRV_InitUart
                0x0000000000001a70      0x278 ./emdrv/uartdrv.o
                0x0000000000001a70                UARTDRV_InitUart
 .text.UARTDRV_ForceTransmit
                0x0000000000001ce8      0x110 ./emdrv/uartdrv.o
                0x0000000000001ce8                UARTDRV_ForceTransmit
 .text.UARTDRV_PauseTransmit
                0x0000000000001df8       0x80 ./emdrv/uartdrv.o
                0x0000000000001df8                UARTDRV_PauseTransmit
 .text.UARTDRV_ResumeTransmit
                0x0000000000001e78       0x8c ./emdrv/uartdrv.o
                0x0000000000001e78                UARTDRV_ResumeTransmit
 .text.UARTDRV_Transmit
                0x0000000000001f04       0xa4 ./emdrv/uartdrv.o
                0x0000000000001f04                UARTDRV_Transmit
 .text.BUS_RegBitWrite
                0x0000000000001fa8       0x2c ./emlib/em_cmu.o
 .text.BUS_RegBitRead
                0x0000000000001fd4       0x2c ./emlib/em_cmu.o
 .text.CMU_DivToLog2
                0x0000000000002000       0x34 ./emlib/em_cmu.o
 .text.SYSTEM_GetProdRev
                0x0000000000002034       0x1c ./emlib/em_cmu.o
 .text.SYSTEM_GetFamily
                0x0000000000002050       0x20 ./emlib/em_cmu.o
 .text.maxFreqHfle
                0x0000000000002070       0x78 ./emlib/em_cmu.o
 .text.setHfLeConfig
                0x00000000000020e8       0x3c ./emlib/em_cmu.o
 .text.getHfLeConfig
                0x0000000000002124       0x2c ./emlib/em_cmu.o
 .text.auxClkGet
                0x0000000000002150       0xb0 ./emlib/em_cmu.o
 .text.dbgClkGet
                0x0000000000002200       0x40 ./emlib/em_cmu.o
 .text.lfClkGet
                0x0000000000002240       0xec ./emlib/em_cmu.o
 .text.syncReg  0x000000000000232c       0x34 ./emlib/em_cmu.o
 .text.usbCClkGet
                0x0000000000002360       0x4c ./emlib/em_cmu.o
 .text.CMU_ClockEnable
                0x00000000000023ac       0xd8 ./emlib/em_cmu.o
                0x00000000000023ac                CMU_ClockEnable
 .text.CMU_ClockFreqGet
                0x0000000000002484      0x1d8 ./emlib/em_cmu.o
                0x0000000000002484                CMU_ClockFreqGet
 .text.CMU_ClockSelectGet
                0x000000000000265c      0x15c ./emlib/em_cmu.o
                0x000000000000265c                CMU_ClockSelectGet
 .text.CORE_EnterAtomic
                0x00000000000027b8       0x20 ./emlib/em_core.o
                0x00000000000027b8                CORE_EnterAtomic
 .text.CORE_ExitAtomic
                0x00000000000027d8       0x1c ./emlib/em_core.o
                0x00000000000027d8                CORE_ExitAtomic
 .text.NVIC_EnableIRQ
                0x00000000000027f4       0x30 ./emlib/em_dma.o
 .text.NVIC_DisableIRQ
                0x0000000000002824       0x34 ./emlib/em_dma.o
 .text.NVIC_ClearPendingIRQ
                0x0000000000002858       0x34 ./emlib/em_dma.o
 .text.BUS_RegBitWrite
                0x000000000000288c       0x2c ./emlib/em_dma.o
 .text.DMA_Prepare
                0x00000000000028b8      0x114 ./emlib/em_dma.o
 .text.DMA_IRQHandler
                0x00000000000029cc       0xd8 ./emlib/em_dma.o
                0x00000000000029cc                DMA_IRQHandler
 .text.DMA_ActivateBasic
                0x0000000000002aa4       0x44 ./emlib/em_dma.o
                0x0000000000002aa4                DMA_ActivateBasic
 .text.DMA_ActivatePingPong
                0x0000000000002ae8       0x5c ./emlib/em_dma.o
                0x0000000000002ae8                DMA_ActivatePingPong
 .text.DMA_CfgChannel
                0x0000000000002b44       0x90 ./emlib/em_dma.o
                0x0000000000002b44                DMA_CfgChannel
 .text.DMA_CfgDescr
                0x0000000000002bd4       0x70 ./emlib/em_dma.o
                0x0000000000002bd4                DMA_CfgDescr
 .text.DMA_ChannelEnabled
                0x0000000000002c44       0x30 ./emlib/em_dma.o
                0x0000000000002c44                DMA_ChannelEnabled
 .text.DMA_ChannelRequestEnable
                0x0000000000002c74       0x38 ./emlib/em_dma.o
                0x0000000000002c74                DMA_ChannelRequestEnable
 .text.DMA_Init
                0x0000000000002cac       0x54 ./emlib/em_dma.o
                0x0000000000002cac                DMA_Init
 .text.DMA_RefreshPingPong
                0x0000000000002d00       0xf8 ./emlib/em_dma.o
                0x0000000000002d00                DMA_RefreshPingPong
 .text.DMA_Reset
                0x0000000000002df8       0x88 ./emlib/em_dma.o
                0x0000000000002df8                DMA_Reset
 .text.BUS_RegBitWrite
                0x0000000000002e80       0x2c ./emlib/em_gpio.o
 .text.BUS_RegMaskedWrite
                0x0000000000002eac       0x28 ./emlib/em_gpio.o
 .text.GPIO_PinOutClear
                0x0000000000002ed4       0x58 ./emlib/em_gpio.o
 .text.GPIO_PinOutSet
                0x0000000000002f2c       0x58 ./emlib/em_gpio.o
 .text.GPIO_ExtIntConfig
                0x0000000000002f84       0xd0 ./emlib/em_gpio.o
                0x0000000000002f84                GPIO_ExtIntConfig
 .text.GPIO_PinModeSet
                0x0000000000003054      0x10c ./emlib/em_gpio.o
                0x0000000000003054                GPIO_PinModeSet
 .text.LEUART_Sync
                0x0000000000003160       0x30 ./emlib/em_leuart.o
 .text.LEUART_Tx
                0x0000000000003190       0x30 ./emlib/em_leuart.o
                0x0000000000003190                LEUART_Tx
 .text.SYSTEM_ChipRevisionGet
                0x00000000000031c0       0x74 ./emlib/em_system.o
                0x00000000000031c0                SYSTEM_ChipRevisionGet
 .text.USART_BaudrateAsyncSet
                0x0000000000003234       0xb0 ./emlib/em_usart.o
                0x0000000000003234                USART_BaudrateAsyncSet
 .text.USART_Enable
                0x00000000000032e4       0x70 ./emlib/em_usart.o
                0x00000000000032e4                USART_Enable
 .text.USART_InitAsync
                0x0000000000003354       0xb4 ./emlib/em_usart.o
                0x0000000000003354                USART_InitAsync
 .text.USART_Reset
                0x0000000000003408       0xb0 ./emlib/em_usart.o
                0x0000000000003408                USART_Reset
 .text.USART_Tx
                0x00000000000034b8       0x2c ./emlib/em_usart.o
                0x00000000000034b8                USART_Tx
 .text.CHIP_Init
                0x00000000000034e4       0x40 ./src/main.o
 .text.callback
                0x0000000000003524       0x18 ./src/main.o
                0x0000000000003524                callback
 .text.uartdrv_example
                0x000000000000353c       0x58 ./src/main.o
                0x000000000000353c                uartdrv_example
 .text.main     0x0000000000003594       0x30 ./src/main.o
                0x0000000000003594                main
 .text.exit     0x00000000000035c4       0x28 /Applications/Simplicity Studio.app/Contents/Eclipse/developer/toolchains/gnu_arm/4.9_2015q3/bin/../lib/gcc/arm-none-eabi/4.9.3/../../../../arm-none-eabi/lib/armv7-m/libc_nano.a(lib_a-exit.o)
                0x00000000000035c4                exit
 .text.__libc_init_array
                0x00000000000035ec       0x4c /Applications/Simplicity Studio.app/Contents/Eclipse/developer/toolchains/gnu_arm/4.9_2015q3/bin/../lib/gcc/arm-none-eabi/4.9.3/../../../../arm-none-eabi/lib/armv7-m/libc_nano.a(lib_a-init.o)
                0x00000000000035ec                __libc_init_array
 .text.memcpy   0x0000000000003638       0x16 /Applications/Simplicity Studio.app/Contents/Eclipse/developer/toolchains/gnu_arm/4.9_2015q3/bin/../lib/gcc/arm-none-eabi/4.9.3/../../../../arm-none-eabi/lib/armv7-m/libc_nano.a(lib_a-memcpy.o)
                0x0000000000003638                memcpy
 .text.memset   0x000000000000364e       0x10 /Applications/Simplicity Studio.app/Contents/Eclipse/developer/toolchains/gnu_arm/4.9_2015q3/bin/../lib/gcc/arm-none-eabi/4.9.3/../../../../arm-none-eabi/lib/armv7-m/libc_nano.a(lib_a-memset.o)
                0x000000000000364e                memset
 *fill*         0x000000000000365e        0x2 
 .text._exit    0x0000000000003660        0x4 /Applications/Simplicity Studio.app/Contents/Eclipse/developer/toolchains/gnu_arm/4.9_2015q3/bin/../lib/gcc/arm-none-eabi/4.9.3/../../../../arm-none-eabi/lib/armv7-m/libnosys.a(_exit.o)
                0x0000000000003660                _exit
 *(.init)
 .init          0x0000000000003664        0x4 /Applications/Simplicity Studio.app/Contents/Eclipse/developer/toolchains/gnu_arm/4.9_2015q3/bin/../lib/gcc/arm-none-eabi/4.9.3/armv7-m/crti.o
                0x0000000000003664                _init
 .init          0x0000000000003668        0x8 /Applications/Simplicity Studio.app/Contents/Eclipse/developer/toolchains/gnu_arm/4.9_2015q3/bin/../lib/gcc/arm-none-eabi/4.9.3/armv7-m/crtn.o
 *(.fini)
 .fini          0x0000000000003670        0x4 /Applications/Simplicity Studio.app/Contents/Eclipse/developer/toolchains/gnu_arm/4.9_2015q3/bin/../lib/gcc/arm-none-eabi/4.9.3/armv7-m/crti.o
                0x0000000000003670                _fini
 .fini          0x0000000000003674        0x8 /Applications/Simplicity Studio.app/Contents/Eclipse/developer/toolchains/gnu_arm/4.9_2015q3/bin/../lib/gcc/arm-none-eabi/4.9.3/armv7-m/crtn.o
 *crtbegin.o(.ctors)
 *crtbegin?.o(.ctors)
 *(EXCLUDE_FILE(*crtend.o *crtend?.o) .ctors)
 *(SORT(.ctors.*))
 *(.ctors)
 *crtbegin.o(.dtors)
 *crtbegin?.o(.dtors)
 *(EXCLUDE_FILE(*crtend.o *crtend?.o) .dtors)
 *(SORT(.dtors.*))
 *(.dtors)
 *(.rodata*)
 .rodata        0x000000000000367c       0x28 ./emdrv/uartdrv.o
 .rodata        0x00000000000036a4       0x37 ./src/main.o
 .rodata.str1.1
                0x00000000000036db        0x2 /Applications/Simplicity Studio.app/Contents/Eclipse/developer/toolchains/gnu_arm/4.9_2015q3/bin/../lib/gcc/arm-none-eabi/4.9.3/../../../../arm-none-eabi/lib/armv7-m/libc_nano.a(lib_a-impure.o)
 *fill*         0x00000000000036dd        0x3 
 .rodata._global_impure_ptr
                0x00000000000036e0        0x4 /Applications/Simplicity Studio.app/Contents/Eclipse/developer/toolchains/gnu_arm/4.9_2015q3/bin/../lib/gcc/arm-none-eabi/4.9.3/../../../../arm-none-eabi/lib/armv7-m/libc_nano.a(lib_a-impure.o)
                0x00000000000036e0                _global_impure_ptr
 *(.eh_frame*)
 .eh_frame      0x00000000000036e4        0x0 /Applications/Simplicity Studio.app/Contents/Eclipse/developer/toolchains/gnu_arm/4.9_2015q3/bin/../lib/gcc/arm-none-eabi/4.9.3/armv7-m/crtbegin.o
 .eh_frame      0x00000000000036e4        0x4 /Applications/Simplicity Studio.app/Contents/Eclipse/developer/toolchains/gnu_arm/4.9_2015q3/bin/../lib/gcc/arm-none-eabi/4.9.3/armv7-m/crtend.o

.glue_7         0x00000000000036e8        0x0
 .glue_7        0x0000000000000000        0x0 linker stubs

.glue_7t        0x00000000000036e8        0x0
 .glue_7t       0x0000000000000000        0x0 linker stubs

.vfp11_veneer   0x00000000000036e8        0x0
 .vfp11_veneer  0x0000000000000000        0x0 linker stubs

.v4_bx          0x00000000000036e8        0x0
 .v4_bx         0x0000000000000000        0x0 linker stubs

.iplt           0x00000000000036e8        0x0
 .iplt          0x0000000000000000        0x0 /Applications/Simplicity Studio.app/Contents/Eclipse/developer/toolchains/gnu_arm/4.9_2015q3/bin/../lib/gcc/arm-none-eabi/4.9.3/armv7-m/crtbegin.o

.ARM.extab
 *(.ARM.extab* .gnu.linkonce.armextab.*)
                0x00000000000036e8                __exidx_start = .

.ARM.exidx      0x00000000000036e8        0x8
 *(.ARM.exidx* .gnu.linkonce.armexidx.*)
 .ARM.exidx     0x00000000000036e8        0x8 /Applications/Simplicity Studio.app/Contents/Eclipse/developer/toolchains/gnu_arm/4.9_2015q3/bin/../lib/gcc/arm-none-eabi/4.9.3/../../../../arm-none-eabi/lib/armv7-m/crt0.o
                0x00000000000036f0                __exidx_end = .
                0x00000000000036f0                __etext = .

.rel.dyn        0x00000000000036f0        0x0
 .rel.iplt      0x0000000000000000        0x0 /Applications/Simplicity Studio.app/Contents/Eclipse/developer/toolchains/gnu_arm/4.9_2015q3/bin/../lib/gcc/arm-none-eabi/4.9.3/armv7-m/crtbegin.o

.data           0x0000000020000000      0x17c load address 0x00000000000036f0
                0x0000000020000000                __data_start__ = .
 *(vtable)
 *(.data*)
 .data.SystemHFXOClock
                0x0000000020000000        0x4 ./CMSIS/EFM32GG/system_efm32gg.o
 .data.SystemLFXOClock
                0x0000000020000004        0x4 ./CMSIS/EFM32GG/system_efm32gg.o
 .data.rxBufferQueue
                0x0000000020000008       0x80 ./src/main.o
 .data.txBufferQueue
                0x0000000020000088       0x80 ./src/main.o
 .data.done     0x0000000020000108        0x1 ./src/main.o
                0x0000000020000108                done
 *fill*         0x0000000020000109        0x3 
 .data.handle   0x000000002000010c        0x4 ./src/main.o
                0x000000002000010c                handle
 .data.impure_data
                0x0000000020000110       0x60 /Applications/Simplicity Studio.app/Contents/Eclipse/developer/toolchains/gnu_arm/4.9_2015q3/bin/../lib/gcc/arm-none-eabi/4.9.3/../../../../arm-none-eabi/lib/armv7-m/libc_nano.a(lib_a-impure.o)
                0x0000000020000170                . = ALIGN (0x4)
 *(.ram)
                0x0000000020000170                . = ALIGN (0x4)
                0x0000000020000170                PROVIDE (__preinit_array_start, .)
 *(.preinit_array)
                0x0000000020000170                PROVIDE (__preinit_array_end, .)
                0x0000000020000170                . = ALIGN (0x4)
                0x0000000020000170                PROVIDE (__init_array_start, .)
 *(SORT(.init_array.*))
 *(.init_array)
 .init_array    0x0000000020000170        0x4 /Applications/Simplicity Studio.app/Contents/Eclipse/developer/toolchains/gnu_arm/4.9_2015q3/bin/../lib/gcc/arm-none-eabi/4.9.3/armv7-m/crtbegin.o
                0x0000000020000174                PROVIDE (__init_array_end, .)
                0x0000000020000174                . = ALIGN (0x4)
                0x0000000020000174                PROVIDE (__fini_array_start, .)
 *(SORT(.fini_array.*))
 *(.fini_array)
 .fini_array    0x0000000020000174        0x4 /Applications/Simplicity Studio.app/Contents/Eclipse/developer/toolchains/gnu_arm/4.9_2015q3/bin/../lib/gcc/arm-none-eabi/4.9.3/armv7-m/crtbegin.o
                0x0000000020000178                PROVIDE (__fini_array_end, .)
 *(.jcr*)
 .jcr           0x0000000020000178        0x0 /Applications/Simplicity Studio.app/Contents/Eclipse/developer/toolchains/gnu_arm/4.9_2015q3/bin/../lib/gcc/arm-none-eabi/4.9.3/armv7-m/crtbegin.o
 .jcr           0x0000000020000178        0x4 /Applications/Simplicity Studio.app/Contents/Eclipse/developer/toolchains/gnu_arm/4.9_2015q3/bin/../lib/gcc/arm-none-eabi/4.9.3/armv7-m/crtend.o
                0x000000002000017c                . = ALIGN (0x4)
                0x000000002000017c                __data_end__ = .

.igot.plt       0x000000002000017c        0x0 load address 0x000000000000386c
 .igot.plt      0x0000000000000000        0x0 /Applications/Simplicity Studio.app/Contents/Eclipse/developer/toolchains/gnu_arm/4.9_2015q3/bin/../lib/gcc/arm-none-eabi/4.9.3/armv7-m/crtbegin.o

.bss            0x0000000020000200      0x474 load address 0x0000000000003900
                0x0000000020000200                . = ALIGN (0x4)
                0x0000000020000200                __bss_start__ = .
 *(.bss*)
 .bss           0x0000000020000200       0x1c /Applications/Simplicity Studio.app/Contents/Eclipse/developer/toolchains/gnu_arm/4.9_2015q3/bin/../lib/gcc/arm-none-eabi/4.9.3/armv7-m/crtbegin.o
 .bss.initialized
                0x000000002000021c        0x1 ./emdrv/dmadrv.o
 *fill*         0x000000002000021d        0x3 
 .bss.chTable   0x0000000020000220       0xf0 ./emdrv/dmadrv.o
 .bss.dmaCallBack
                0x0000000020000310       0x90 ./emdrv/dmadrv.o
 .bss.gpioCallbacks
                0x00000000200003a0       0x40 ./emdrv/gpiointerrupt.o
 .bss.uartdrvHandleIsInitialized
                0x00000000200003e0        0x1 ./emdrv/uartdrv.o
 *fill*         0x00000000200003e1        0x3 
 .bss.uartdrvHandle
                0x00000000200003e4       0x10 ./emdrv/uartdrv.o
 *(COMMON)
 COMMON         0x00000000200003f4        0x4 ./CMSIS/EFM32GG/system_efm32gg.o
                0x00000000200003f4                SystemCoreClock
 *fill*         0x00000000200003f8        0x8 
 COMMON         0x0000000020000400      0x200 ./emdrv/dmactrl.o
                0x0000000020000400                dmaControlBlock
 COMMON         0x0000000020000600       0x74 ./src/main.o
                0x0000000020000600                handleData
                0x0000000020000634                buffer
                0x0000000020000674                . = ALIGN (0x4)
                0x0000000020000674                __bss_end__ = .

.heap           0x0000000020000678      0xc00
                0x0000000020000678                __HeapBase = .
                0x0000000020000678                __end__ = .
                0x0000000020000678                end = __end__
                0x0000000020000678                _end = __end__
 *(.heap*)
 .heap          0x0000000020000678      0xc00 ./CMSIS/EFM32GG/startup_gcc_efm32gg.o
                0x0000000020001278                __HeapLimit = .

.stack_dummy    0x0000000020000678      0x400
 *(.stack*)
 .stack         0x0000000020000678      0x400 ./CMSIS/EFM32GG/startup_gcc_efm32gg.o
                0x0000000020020000                __StackTop = (ORIGIN (RAM) + 0x20000)
                0x000000002001fc00                __StackLimit = (__StackTop - SIZEOF (.stack_dummy))
                0x0000000020020000                PROVIDE (__stack, __StackTop)
                0x0000000000000001                ASSERT ((__StackLimit >= __HeapLimit), region RAM overflowed with stack)
                0x0000000000000001                ASSERT ((0x100000 >= (__etext + SIZEOF (.data))), FLASH memory overflowed !)
OUTPUT(EFM32GG990F1024_2.axf elf32-littlearm)

.ARM.attributes
                0x0000000000000000       0x29
 .ARM.attributes
                0x0000000000000000       0x1d /Applications/Simplicity Studio.app/Contents/Eclipse/developer/toolchains/gnu_arm/4.9_2015q3/bin/../lib/gcc/arm-none-eabi/4.9.3/armv7-m/crti.o
 .ARM.attributes
                0x000000000000001d       0x2d /Applications/Simplicity Studio.app/Contents/Eclipse/developer/toolchains/gnu_arm/4.9_2015q3/bin/../lib/gcc/arm-none-eabi/4.9.3/armv7-m/crtbegin.o
 .ARM.attributes
                0x000000000000004a       0x1b /Applications/Simplicity Studio.app/Contents/Eclipse/developer/toolchains/gnu_arm/4.9_2015q3/bin/../lib/gcc/arm-none-eabi/4.9.3/../../../../arm-none-eabi/lib/armv7-m/crt0.o
 .ARM.attributes
                0x0000000000000065       0x1b ./CMSIS/EFM32GG/startup_gcc_efm32gg.o
 .ARM.attributes
                0x0000000000000080       0x33 ./CMSIS/EFM32GG/system_efm32gg.o
 .ARM.attributes
                0x00000000000000b3       0x33 ./emdrv/dmactrl.o
 .ARM.attributes
                0x00000000000000e6       0x33 ./emdrv/dmadrv.o
 .ARM.attributes
                0x0000000000000119       0x33 ./emdrv/gpiointerrupt.o
 .ARM.attributes
                0x000000000000014c       0x33 ./emdrv/uartdrv.o
 .ARM.attributes
                0x000000000000017f       0x33 ./emlib/em_cmu.o
 .ARM.attributes
                0x00000000000001b2       0x33 ./emlib/em_core.o
 .ARM.attributes
                0x00000000000001e5       0x33 ./emlib/em_dma.o
 .ARM.attributes
                0x0000000000000218       0x33 ./emlib/em_gpio.o
 .ARM.attributes
                0x000000000000024b       0x33 ./emlib/em_leuart.o
 .ARM.attributes
                0x000000000000027e       0x33 ./emlib/em_system.o
 .ARM.attributes
                0x00000000000002b1       0x33 ./emlib/em_usart.o
 .ARM.attributes
                0x00000000000002e4       0x33 ./src/main.o
 .ARM.attributes
                0x0000000000000317       0x2d /Applications/Simplicity Studio.app/Contents/Eclipse/developer/toolchains/gnu_arm/4.9_2015q3/bin/../lib/gcc/arm-none-eabi/4.9.3/../../../../arm-none-eabi/lib/armv7-m/libc_nano.a(lib_a-exit.o)
 .ARM.attributes
                0x0000000000000344       0x2d /Applications/Simplicity Studio.app/Contents/Eclipse/developer/toolchains/gnu_arm/4.9_2015q3/bin/../lib/gcc/arm-none-eabi/4.9.3/../../../../arm-none-eabi/lib/armv7-m/libc_nano.a(lib_a-impure.o)
 .ARM.attributes
                0x0000000000000371       0x2d /Applications/Simplicity Studio.app/Contents/Eclipse/developer/toolchains/gnu_arm/4.9_2015q3/bin/../lib/gcc/arm-none-eabi/4.9.3/../../../../arm-none-eabi/lib/armv7-m/libc_nano.a(lib_a-init.o)
 .ARM.attributes
                0x000000000000039e       0x2d /Applications/Simplicity Studio.app/Contents/Eclipse/developer/toolchains/gnu_arm/4.9_2015q3/bin/../lib/gcc/arm-none-eabi/4.9.3/../../../../arm-none-eabi/lib/armv7-m/libc_nano.a(lib_a-memcpy.o)
 .ARM.attributes
                0x00000000000003cb       0x2d /Applications/Simplicity Studio.app/Contents/Eclipse/developer/toolchains/gnu_arm/4.9_2015q3/bin/../lib/gcc/arm-none-eabi/4.9.3/../../../../arm-none-eabi/lib/armv7-m/libc_nano.a(lib_a-memset.o)
 .ARM.attributes
                0x00000000000003f8       0x2d /Applications/Simplicity Studio.app/Contents/Eclipse/developer/toolchains/gnu_arm/4.9_2015q3/bin/../lib/gcc/arm-none-eabi/4.9.3/../../../../arm-none-eabi/lib/armv7-m/libnosys.a(_exit.o)
 .ARM.attributes
                0x0000000000000425       0x2d /Applications/Simplicity Studio.app/Contents/Eclipse/developer/toolchains/gnu_arm/4.9_2015q3/bin/../lib/gcc/arm-none-eabi/4.9.3/armv7-m/crtend.o
 .ARM.attributes
                0x0000000000000452       0x1d /Applications/Simplicity Studio.app/Contents/Eclipse/developer/toolchains/gnu_arm/4.9_2015q3/bin/../lib/gcc/arm-none-eabi/4.9.3/armv7-m/crtn.o

.comment        0x0000000000000000       0x70
 .comment       0x0000000000000000       0x70 ./CMSIS/EFM32GG/system_efm32gg.o
                                         0x71 (size before relaxing)
 .comment       0x0000000000000000       0x71 ./emdrv/dmactrl.o
 .comment       0x0000000000000000       0x71 ./emdrv/dmadrv.o
 .comment       0x0000000000000000       0x71 ./emdrv/gpiointerrupt.o
 .comment       0x0000000000000000       0x71 ./emdrv/uartdrv.o
 .comment       0x0000000000000000       0x71 ./emlib/em_cmu.o
 .comment       0x0000000000000000       0x71 ./emlib/em_core.o
 .comment       0x0000000000000000       0x71 ./emlib/em_dma.o
 .comment       0x0000000000000000       0x71 ./emlib/em_gpio.o
 .comment       0x0000000000000000       0x71 ./emlib/em_leuart.o
 .comment       0x0000000000000000       0x71 ./emlib/em_system.o
 .comment       0x0000000000000000       0x71 ./emlib/em_usart.o
 .comment       0x0000000000000000       0x71 ./src/main.o

.debug_line     0x0000000000000000     0x56cd
 .debug_line    0x0000000000000000       0x72 ./CMSIS/EFM32GG/startup_gcc_efm32gg.o
 .debug_line    0x0000000000000072      0x366 ./CMSIS/EFM32GG/system_efm32gg.o
 .debug_line    0x00000000000003d8      0x2c1 ./emdrv/dmactrl.o
 .debug_line    0x0000000000000699      0x7a4 ./emdrv/dmadrv.o
 .debug_line    0x0000000000000e3d      0x4f6 ./emdrv/gpiointerrupt.o
 .debug_line    0x0000000000001333     0x1327 ./emdrv/uartdrv.o
 .debug_line    0x000000000000265a      0xacc ./emlib/em_cmu.o
 .debug_line    0x0000000000003126      0x697 ./emlib/em_core.o
 .debug_line    0x00000000000037bd      0x62a ./emlib/em_dma.o
 .debug_line    0x0000000000003de7      0x514 ./emlib/em_gpio.o
 .debug_line    0x00000000000042fb      0x4c9 ./emlib/em_leuart.o
 .debug_line    0x00000000000047c4      0x367 ./emlib/em_system.o
 .debug_line    0x0000000000004b2b      0x6b9 ./emlib/em_usart.o
 .debug_line    0x00000000000051e4      0x4e9 ./src/main.o

.debug_info     0x0000000000000000     0xb088
 .debug_info    0x0000000000000000       0xa6 ./CMSIS/EFM32GG/startup_gcc_efm32gg.o
 .debug_info    0x00000000000000a6      0x582 ./CMSIS/EFM32GG/system_efm32gg.o
 .debug_info    0x0000000000000628      0x125 ./emdrv/dmactrl.o
 .debug_info    0x000000000000074d     0x170a ./emdrv/dmadrv.o
 .debug_info    0x0000000000001e57      0x79f ./emdrv/gpiointerrupt.o
 .debug_info    0x00000000000025f6     0x26c0 ./emdrv/uartdrv.o
 .debug_info    0x0000000000004cb6     0x1501 ./emlib/em_cmu.o
 .debug_info    0x00000000000061b7      0xcfa ./emlib/em_core.o
 .debug_info    0x0000000000006eb1     0x12e9 ./emlib/em_dma.o
 .debug_info    0x000000000000819a      0x65a ./emlib/em_gpio.o
 .debug_info    0x00000000000087f4      0x850 ./emlib/em_leuart.o
 .debug_info    0x0000000000009044      0x269 ./emlib/em_system.o
 .debug_info    0x00000000000092ad      0xf0a ./emlib/em_usart.o
 .debug_info    0x000000000000a1b7      0xed1 ./src/main.o

.debug_abbrev   0x0000000000000000     0x192c
 .debug_abbrev  0x0000000000000000       0x14 ./CMSIS/EFM32GG/startup_gcc_efm32gg.o
 .debug_abbrev  0x0000000000000014      0x16d ./CMSIS/EFM32GG/system_efm32gg.o
 .debug_abbrev  0x0000000000000181       0x96 ./emdrv/dmactrl.o
 .debug_abbrev  0x0000000000000217      0x278 ./emdrv/dmadrv.o
 .debug_abbrev  0x000000000000048f      0x24a ./emdrv/gpiointerrupt.o
 .debug_abbrev  0x00000000000006d9      0x2fd ./emdrv/uartdrv.o
 .debug_abbrev  0x00000000000009d6      0x2de ./emlib/em_cmu.o
 .debug_abbrev  0x0000000000000cb4      0x237 ./emlib/em_core.o
 .debug_abbrev  0x0000000000000eeb      0x23b ./emlib/em_dma.o
 .debug_abbrev  0x0000000000001126      0x1cd ./emlib/em_gpio.o
 .debug_abbrev  0x00000000000012f3      0x1b9 ./emlib/em_leuart.o
 .debug_abbrev  0x00000000000014ac       0xde ./emlib/em_system.o
 .debug_abbrev  0x000000000000158a      0x1dd ./emlib/em_usart.o
 .debug_abbrev  0x0000000000001767      0x1c5 ./src/main.o

.debug_aranges  0x0000000000000000      0x8b0
 .debug_aranges
                0x0000000000000000       0x20 ./CMSIS/EFM32GG/startup_gcc_efm32gg.o
 .debug_aranges
                0x0000000000000020       0x70 ./CMSIS/EFM32GG/system_efm32gg.o
 .debug_aranges
                0x0000000000000090       0x18 ./emdrv/dmactrl.o
 .debug_aranges
                0x00000000000000a8       0xb8 ./emdrv/dmadrv.o
 .debug_aranges
                0x0000000000000160       0x68 ./emdrv/gpiointerrupt.o
 .debug_aranges
                0x00000000000001c8      0x1c0 ./emdrv/uartdrv.o
 .debug_aranges
                0x0000000000000388      0x168 ./emlib/em_cmu.o
 .debug_aranges
                0x00000000000004f0       0xe8 ./emlib/em_core.o
 .debug_aranges
                0x00000000000005d8       0xc0 ./emlib/em_dma.o
 .debug_aranges
                0x0000000000000698       0x70 ./emlib/em_gpio.o
 .debug_aranges
                0x0000000000000708       0x88 ./emlib/em_leuart.o
 .debug_aranges
                0x0000000000000790       0x28 ./emlib/em_system.o
 .debug_aranges
                0x00000000000007b8       0xc0 ./emlib/em_usart.o
 .debug_aranges
                0x0000000000000878       0x38 ./src/main.o

.debug_loc      0x0000000000000000     0x4cbb
 .debug_loc     0x0000000000000000      0x31c ./CMSIS/EFM32GG/system_efm32gg.o
 .debug_loc     0x000000000000031c      0x665 ./emdrv/dmadrv.o
 .debug_loc     0x0000000000000981      0x338 ./emdrv/gpiointerrupt.o
 .debug_loc     0x0000000000000cb9     0x1180 ./emdrv/uartdrv.o
 .debug_loc     0x0000000000001e39      0xd50 ./emlib/em_cmu.o
 .debug_loc     0x0000000000002b89      0x88c ./emlib/em_core.o
 .debug_loc     0x0000000000003415      0x72c ./emlib/em_dma.o
 .debug_loc     0x0000000000003b41      0x3d0 ./emlib/em_gpio.o
 .debug_loc     0x0000000000003f11      0x49c ./emlib/em_leuart.o
 .debug_loc     0x00000000000043ad       0xb8 ./emlib/em_system.o
 .debug_loc     0x0000000000004465      0x72e ./emlib/em_usart.o
 .debug_loc     0x0000000000004b93      0x128 ./src/main.o

.debug_ranges   0x0000000000000000      0x7b8
 .debug_ranges  0x0000000000000000       0x60 ./CMSIS/EFM32GG/system_efm32gg.o
 .debug_ranges  0x0000000000000060       0xa8 ./emdrv/dmadrv.o
 .debug_ranges  0x0000000000000108       0x58 ./emdrv/gpiointerrupt.o
 .debug_ranges  0x0000000000000160      0x1b0 ./emdrv/uartdrv.o
 .debug_ranges  0x0000000000000310      0x158 ./emlib/em_cmu.o
 .debug_ranges  0x0000000000000468       0xd8 ./emlib/em_core.o
 .debug_ranges  0x0000000000000540       0xb0 ./emlib/em_dma.o
 .debug_ranges  0x00000000000005f0       0x60 ./emlib/em_gpio.o
 .debug_ranges  0x0000000000000650       0x78 ./emlib/em_leuart.o
 .debug_ranges  0x00000000000006c8       0x18 ./emlib/em_system.o
 .debug_ranges  0x00000000000006e0       0xb0 ./emlib/em_usart.o
 .debug_ranges  0x0000000000000790       0x28 ./src/main.o

.debug_str      0x0000000000000000     0x4708
 .debug_str     0x0000000000000000      0x438 ./CMSIS/EFM32GG/system_efm32gg.o
                                        0x4bf (size before relaxing)
 .debug_str     0x0000000000000438       0xb3 ./emdrv/dmactrl.o
                                        0x249 (size before relaxing)
 .debug_str     0x00000000000004eb     0x14ba ./emdrv/dmadrv.o
                                       0x1759 (size before relaxing)
 .debug_str     0x00000000000019a5      0x222 ./emdrv/gpiointerrupt.o
                                        0x6cb (size before relaxing)
 .debug_str     0x0000000000001bc7     0x10f0 ./emdrv/uartdrv.o
                                       0x20b2 (size before relaxing)
 .debug_str     0x0000000000002cb7      0x99f ./emlib/em_cmu.o
                                       0x106d (size before relaxing)
 .debug_str     0x0000000000003656      0x365 ./emlib/em_core.o
                                        0x85c (size before relaxing)
 .debug_str     0x00000000000039bb      0x310 ./emlib/em_dma.o
                                        0xdec (size before relaxing)
 .debug_str     0x0000000000003ccb      0x192 ./emlib/em_gpio.o
                                        0x60c (size before relaxing)
 .debug_str     0x0000000000003e5d      0x16b ./emlib/em_leuart.o
                                        0x79a (size before relaxing)
 .debug_str     0x0000000000003fc8      0x109 ./emlib/em_system.o
                                        0x2f0 (size before relaxing)
 .debug_str     0x00000000000040d1      0x5de ./emlib/em_usart.o
                                        0xe2b (size before relaxing)
 .debug_str     0x00000000000046af       0x59 ./src/main.o
                                       0x1382 (size before relaxing)

.debug_frame    0x0000000000000000     0x240c
 .debug_frame   0x0000000000000000      0x180 ./CMSIS/EFM32GG/system_efm32gg.o
 .debug_frame   0x0000000000000180      0x2f0 ./emdrv/dmadrv.o
 .debug_frame   0x0000000000000470      0x184 ./emdrv/gpiointerrupt.o
 .debug_frame   0x00000000000005f4      0x7fc ./emdrv/uartdrv.o
 .debug_frame   0x0000000000000df0      0x630 ./emlib/em_cmu.o
 .debug_frame   0x0000000000001420      0x3dc ./emlib/em_core.o
 .debug_frame   0x00000000000017fc      0x340 ./emlib/em_dma.o
 .debug_frame   0x0000000000001b3c      0x1c0 ./emlib/em_gpio.o
 .debug_frame   0x0000000000001cfc      0x21c ./emlib/em_leuart.o
 .debug_frame   0x0000000000001f18       0x60 ./emlib/em_system.o
 .debug_frame   0x0000000000001f78      0x338 ./emlib/em_usart.o
 .debug_frame   0x00000000000022b0       0xa0 ./src/main.o
 .debug_frame   0x0000000000002350       0x28 /Applications/Simplicity Studio.app/Contents/Eclipse/developer/toolchains/gnu_arm/4.9_2015q3/bin/../lib/gcc/arm-none-eabi/4.9.3/../../../../arm-none-eabi/lib/armv7-m/libc_nano.a(lib_a-exit.o)
 .debug_frame   0x0000000000002378       0x2c /Applications/Simplicity Studio.app/Contents/Eclipse/developer/toolchains/gnu_arm/4.9_2015q3/bin/../lib/gcc/arm-none-eabi/4.9.3/../../../../arm-none-eabi/lib/armv7-m/libc_nano.a(lib_a-init.o)
 .debug_frame   0x00000000000023a4       0x28 /Applications/Simplicity Studio.app/Contents/Eclipse/developer/toolchains/gnu_arm/4.9_2015q3/bin/../lib/gcc/arm-none-eabi/4.9.3/../../../../arm-none-eabi/lib/armv7-m/libc_nano.a(lib_a-memcpy.o)
 .debug_frame   0x00000000000023cc       0x20 /Applications/Simplicity Studio.app/Contents/Eclipse/developer/toolchains/gnu_arm/4.9_2015q3/bin/../lib/gcc/arm-none-eabi/4.9.3/../../../../arm-none-eabi/lib/armv7-m/libc_nano.a(lib_a-memset.o)
 .debug_frame   0x00000000000023ec       0x20 /Applications/Simplicity Studio.app/Contents/Eclipse/developer/toolchains/gnu_arm/4.9_2015q3/bin/../lib/gcc/arm-none-eabi/4.9.3/../../../../arm-none-eabi/lib/armv7-m/libnosys.a(_exit.o)
